:020000040800F2
:1000000000500020DD040008C5030008C7030008F5
:10001000C9030008CB030008CD030008000000005E
:1000200000000000000000000000000011150008A2
:10003000CF03000800000000B1150008D10300083C
:1000400025050008250500082505000825050008E8
:1000500025050008250500082505000825050008D8
:1000600025050008250500082505000825050008C8
:10007000250500082505000825050008E9030008F6
:1000800025050008250500082505000825050008A8
:100090002505000825050008250500082505000898
:1000A0002505000825050008250500082505000888
:1000B0002505000825050008250500082505000878
:1000C0002505000825050008250500082505000868
:1000D0002505000825050008250500082505000858
:1000E000250500082505000825050008000000007A
:1000F0000000000000000000000000000000000000
:0C01000000000000000000005FF808F1A3
:1001100010B5054C237833B9044B13B10448AFF341
:1001200000800123237010BD140000200000000097
:10013000AC27000808B5034B1BB103490348AFF3D4
:10014000008008BD0000000018000020AC27000857
:1001500010F8012B11F8013B012A28BF9A42F7D071
:10016000D01A704700B583B00A4B5A6942F00102B9
:100170005A615B6903F001030193019B0022052191
:100180000F2000F061FA0F2000F06EFA03B05DF866
:1001900004FB00BF0010024008B5012001F025F962
:1001A000FBE70000034B0360034B0B6080231360ED
:1001B000704700BF300200203000002010B588B02A
:1001C0000DF1040C074C0FCCACE80F0094E80700CD
:1001D0008CE80700002101A801F0D4F8024B186058
:1001E00008B010BDC42700088402002030B589B0D3
:1001F00000240494059406940794184B9A6942F0DD
:1002000010029A619A6902F010020192019A9A69A9
:1002100042F020029A619A6902F020020292029A48
:100220009A6942F004029A619B6903F00403039304
:10023000039B0B4D22464FF40051284600F01CFC56
:100240004FF400530493112305930694022307935C
:1002500004A9284600F002FB09B030BD001002409E
:100260000010014008B502F01BF80823084A0021DD
:10027000084602F04FF90823064A1021002002F038
:1002800049F901F0F9FF4FF47A7001F0A5FEECE7AF
:10029000EC270008F427000808B564230722044966
:1002A000044800F0FEFF4FF47A7001F095FEF4E789
:1002B00004280008CC02002072B6FEE700B591B019
:1002C0002822002106A802F0DFF9002301930293FF
:1002D0000393049305930223069301230A931023A7
:1002E0000B9306A800F0E4FB68B90F2301930021EB
:1002F000029103910491059101A800F00BFE20B931
:1003000011B05DF804FBFFF7D7FFFFF7D5FF000042
:1003100000B583B000F02EF901F0D8FFFFF7CEFF53
:10032000FFF764FFFFF71EFF00F068F80024019458
:10033000012500952346802209490A4801F0CFFC97
:1003400001940095234680220749084801F0C7FC24
:1003500001F0F8FCFFF732FF01F00FF8FEE700BFF5
:100360000C280008650200081C28000899020008F3
:1003700000B583B0114B9A6942F001029A619A6903
:1003800002F001020092009ADA6942F08052DA61CA
:10039000DB6903F080530193019B00220F216FF072
:1003A000010000F051F9064A536823F0E06343F07E
:1003B0000073536003B05DF804FB00BF00100240FF
:1003C00000000140FEE7FEE7FEE7FEE7FEE77047BC
:1003D00008B500F0E1F801F071FE012800D108BD78
:1003E00001F008F9FBE7000008B5024800F094F9B5
:1003F00008BD00BF880200207047000008B50A4809
:100400000A4B03604FF4E133436000238360C36011
:1004100003610C2242618361C36100F012FF00B9E5
:1004200008BDFFF749FFFBE7CC0200200038014080
:1004300070B586B00023029303930493059302687A
:10044000224B9A4201D006B070BD044603F55843D2
:100450009A6942F480429A619A6902F48042009259
:10046000009A9A6942F004029A619B6903F00403BE
:100470000193019B4FF40073029302230393032320
:100480000593134E02A9304600F0E8F94FF480635B
:10049000029300250395049502A9304600F0DEF989
:1004A0000C480D4B0360456085608023C360056187
:1004B00045618561C56100F0F9F818B9054BE36342
:1004C0005C62C0E7FFF7F8FEF8E700BF00380140C4
:1004D000000801408802002058000240FFF78CFF0E
:1004E0000B480C490C4A002302E0D458C450043392
:1004F000C4188C42F9D3094A094C002301E0136067
:100500000432A242FBD302F0C7F8FFF701FF7047A5
:100510000000002014000020C43100081400002056
:1005200004160020FEE7000010B504460E4B1A78B2
:100530004FF47A73B3FBF2F30C4A1068B0FBF3F09C
:1005400000F0A0F868B90F2C01D901200AE00022C0
:1005500021464FF0FF3000F077F8054B1C6000207B
:1005600000E0012010BD00BF0400002000000020BA
:100570000800002008B5074A136843F01003136011
:10058000032000F04FF80F20FFF7CEFFFFF7F0FE3B
:10059000002008BD00200240034A1168034B1B786D
:1005A0000B441360704700BF1403002004000020B8
:1005B000014B1868704700BF14030020002808DBB7
:1005C0000901C9B200F1604000F5614080F80013F4
:1005D000704700F00F000901C9B2014B1954704770
:1005E00014ED00E000B500F00700C0F1070CBCF10D
:1005F000040F28BF4FF0040C031D062B0FD9C31E98
:100600004FF0FF3E0EFA0CF021EA000199400EFA7D
:1006100003FE22EA0E0241EA02005DF804FB002319
:10062000EEE70000074AD36823F4E0631B041B0CC9
:10063000000200F4E060034343F0BF6343F400337F
:10064000D360704700ED00E010B50446054BD86854
:10065000C0F30220FFF7C6FF01462046FFF7AEFFBA
:1006600010BD00BF00ED00E0002807DB00F01F0216
:10067000400901239340024A42F82030704700BFEE
:1006800000E100E00138B0F1807F0BD24FF0E023B1
:100690005861054AF02182F8231000209861072252
:1006A0001A6170470120704700ED00E060B310B49C
:1006B00002460168154B0B441548A0FB03031B09B8
:1006C0009B001364134BD363022382F82130086824
:1006D00020F47F5020F03000536894682343D4689E
:1006E0002343146923435469234394692343D469FE
:1006F000234303430B6000209063012382F82130E1
:1007000082F8200010BC704701207047F8FFFDBF41
:10071000CDCCCCCC0000024038B5C36B1A6804685D
:100720002568016C04238B40134235D015F0040F6B
:1007300032D0236813F0200F03D1236823F0040381
:1007400023600368434A934214D01432934218D072
:100750001432934217D01432934217D0143293427A
:1007600017D01432934202D04FF0806203E04FF46E
:10077000800200E00422384B5A60C36A03B19847F4
:1007800038BD4022F7E74FF48062F4E74FF480422F
:10079000F1E74FF48022EEE702238B4013423CD076
:1007A00015F0020F39D0236813F0200F06D123680B
:1007B00023F00A032360012380F821300368254ACF
:1007C000934214D0143293421CD0143293421BD063
:1007D000143293421BD0143293421BD014329342F2
:1007E00002D04FF0007203E04FF4001200E002224A
:1007F000194B5A60002380F82030836A002BBFD049
:100800009847BDE72022F3E74FF40072F0E74FF47A
:100810000052EDE74FF40032EAE708238B40134221
:10082000AED015F0080FABD0236823F00E03236081
:10083000026CC16B012303FA02F24A60836380F801
:100840002130002380F82030036B002B98D098478C
:1008500096E700BF080002400000024070B582B079
:100860000024A446A2E07E4DAB4210D007D97D4DB6
:10087000AB420CD005F58035AB4208D013E0A5F5AE
:100880008015AB4203D005F57025AB4207D18B68CC
:10089000002B55D0012B4ED04261082403E0A5F572
:1008A0008015AB42F3D0BEF1FF0F4BD806464FEA9E
:1008B0008C0233680F25954023EA050304FA02F2FF
:1008C000134333604B6813F0805F6DD0664B9A69B9
:1008D00042F001029A619B6903F001030193019BBD
:1008E0004FEA9C02951C614B53F825600CF0030500
:1008F000AD000F23AB4026EA03065D4B984228D09B
:1009000003F58063984200F08D8003F58063984280
:1009100000F08A8003F58063984218D0042319E020
:10092000CC68C0E7CC680434BDE7CC680834BAE7CB
:10093000CC680C34B7E702610824B4E70024B2E7BE
:100940000424B0E7061DACF108029200B1E70323CE
:1009500000E00023AB4033430232444D45F82230DF
:100960004B6813F4801F61D0424A936843EA0E0338
:1009700093604B6813F4001F5ED03E4AD36843EA8D
:100980000E03D3604B6813F4003F5BD0394A5368C1
:1009900043EA0E0353604B6813F4803F58D0354A46
:1009A000136843EA0E0313600CF1010C0B6833FA71
:1009B0000CF253D0012202FA0CF203EA020E32EAE0
:1009C0000303F1D14B68122B3FF64DAF122B3FF6CC
:1009D0006AAF01A555F823F08F0800082109000827
:1009E0002B0900083D090008A7080008A70800080F
:1009F000A7080008A7080008A7080008A70800081B
:100A0000A7080008A7080008A7080008A70800080A
:100A1000A7080008A7080008A7080008250900087B
:100A200031090008012395E7022393E7114A9368EF
:100A300023EA0E0393609CE70E4AD36823EA0E0371
:100A4000D3609FE70B4A536823EA0E035360A2E783
:100A5000084A136823EA0E031360A5E702B070BDCD
:100A60000000221000003110001002400000014080
:100A700000080140000401400AB101617047090407
:100A80000161704782B0084B1B68084AA2FB032330
:100A90005B0A00FB03F3019300BF019B5A1E019206
:100AA000002BF9D102B0704700000020D34D621036
:100AB000002800F0F18170B582B00446036813F09D
:100AC000010F2CD0994B5B6803F00C03042B1DD055
:100AD000964B5B6803F00C03082B12D06368B3F5E8
:100AE000803F41D0002B55D103F1804303F50433FF
:100AF0001A6822F480321A601A6822F480221A607E
:100B000037E08A4B5B6813F4803FE7D0874B1B6864
:100B100013F4003F03D06368002B00F0BF8123680B
:100B200013F0020F75D0814B5B6813F00C0F5FD090
:100B30007E4B5B6803F00C03082B54D02369002B19
:100B400000F08A807A4B01221A60FFF731FD0546DA
:100B5000764B1B6813F0020F75D1FFF729FD401B80
:100B60000228F5D903209EE1704A136843F48033CC
:100B70001360636843B3FFF71BFD05466B4B1B68AF
:100B800013F4003FCBD1FFF713FD401B6428F5D9C8
:100B9000032088E1B3F5A02F09D0644B1A6822F432
:100BA00080321A601A6822F480221A60E1E703F1A9
:100BB0008043A3F53C331A6842F480221A601A6815
:100BC00042F480321A60D4E7FFF7F2FC0546574B37
:100BD0001B6813F4003FA2D0FFF7EAFC401B642817
:100BE000F5D903205FE1514B5B6813F4803FA5D139
:100BF0004E4B1B6813F0020F03D02369012B40F00A
:100C00004F814A4A136823F0F803616943EAC1033C
:100C10001360236813F0080F33D0A369002B5CD056
:100C2000434B0122C3F88024FFF7C2FC05463F4B2B
:100C30005B6A13F0020F21D1FFF7BAFC401B0228B8
:100C4000F5D903202FE1394A136823F0F8036169CD
:100C500043EAC1031360DCE7354B00221A60FFF75B
:100C6000A7FC0546314B1B6813F0020FD1D0FFF7EC
:100C70009FFC401B0228F5D9032014E10120FFF757
:100C800001FF236813F0040F00F09680274BDB6907
:100C900013F0805F34D1254BDA6942F08052DA617B
:100CA000DB6903F080530193019B0125214B1B68F5
:100CB00013F4807F26D0E368012B3DD0002B53D165
:100CC00003F1804303F504331A6A22F001021A6229
:100CD0001A6A22F004021A6233E0154B0022C3F8AC
:100CE0008024FFF765FC0546104B5B6A13F0020F8A
:100CF000C7D0FFF75DFC401B0228F5D90320D2E0E6
:100D00000025D3E70B4A136843F480731360FFF7A1
:100D10004FFC0646074B1B6813F4807FCBD1FFF7CF
:100D200047FC801B6428F5D90320BCE0001002407A
:100D300000004242007000405F4A136A43F0010322
:100D40001362E36833B3FFF733FC06465A4B1B6A62
:100D500013F0020F2FD1FFF72BFC801B41F28833D9
:100D60009842F3D903209EE0052B09D0524B1A6A12
:100D700022F001021A621A6A22F004021A62E0E703
:100D80004D4B1A6A42F004021A621A6A42F00102DA
:100D90001A62D6E7FFF70CFC0646474B1B6A13F0B6
:100DA000020F08D0FFF704FC801B41F28833984201
:100DB000F3D9032077E0E5B9E369002B72D03E4A0E
:100DC000526802F00C02082A56D0022B17D03B4B77
:100DD00000221A66FFF7ECFB0446374B1B6813F042
:100DE000007F47D0FFF7E4FB001B0228F5D9032062
:100DF00059E0314AD36923F08053D361DCE72F4BAC
:100E000000221A66FFF7D4FB05462B4B1B6813F034
:100E1000007F06D0FFF7CCFB401B0228F5D903204A
:100E200041E0236AB3F5803F1AD023494B6823F48D
:100E30007413226A606A024313434B601F4B012202
:100E40001A66FFF7B5FB04461B4B1B6813F0007FC7
:100E50000ED1FFF7ADFB001B0228F5D9032022E0DD
:100E6000154A536823F40033A1680B435360DCE751
:100E7000002018E0002016E0012B16D00E4B5B6816
:100E800003F48031226A914211D103F47013626A33
:100E900093420ED1002006E001207047012002E0BD
:100EA000012000E0002002B070BD0120FBE701201E
:100EB000F9E70120F7E700BF0010024000004242BE
:100EC0000F4B5B6803F00C02082A01D00D487047F5
:100ED000C3F383420C49885C13F4803F0BD0084B6A
:100EE0005B68C3F34043094AD35C064A02FB00F047
:100EF000B0FBF3F07047064B03FB00F0704700BFF8
:100F00000010024000127A0044280008402800081F
:100F100000093D00002800F0A08070B50D46044691
:100F2000524B1B6803F007038B420BD24F4A1368E6
:100F300023F007030B431360136803F007038B428E
:100F400040F08D80236813F0020F17D013F0040FC8
:100F500004D0474A536843F4E0635360236813F0B6
:100F6000080F04D0424A536843F460535360404A28
:100F7000536823F0F003A1680B435360236813F018
:100F8000010F31D06368012B20D0022B25D0384AC5
:100F9000126812F0020F64D035494A6822F0030249
:100FA00013434B60FFF704FB0646314B5B6803F0CD
:100FB0000C036268B3EB820F16D0FFF7F9FA801BBF
:100FC00041F288339842F0D9032045E0284A12685C
:100FD00012F4003FE0D101203EE0254A126812F0F1
:100FE000007FD9D1012037E0204B1B6803F00703B5
:100FF000AB420AD91D4A136823F007032B43136041
:10100000136803F00703AB422DD1236813F0040FDC
:1010100006D0174A536823F4E063E1680B4353603A
:10102000236813F0080F07D0114A536823F4605364
:10103000216943EAC1035360FFF742FF0C4B5B6831
:10104000C3F303130B4AD35CD8400B4B18600B4B14
:101050001868FFF769FA002070BD01207047012071
:10106000FAE70120F8E70120F6E700BF0020024080
:101070000010024030280008000000200800002076
:10108000014B1868704700BF0000002008B5FFF74B
:10109000F7FF044B5B68C3F30223034AD35CD840D9
:1010A00008BD00BF001002402828000808B5FFF75F
:1010B000E7FF044B5B68C3F3C223034AD35CD84009
:1010C00008BD00BF0010024028280008026802F195
:1010D0000C0353E8003F23F490730C3242E80031D4
:1010E0000029F3D1026802F1140353E8003F23F012
:1010F0000103143242E800310029F3D1036B012BC4
:1011000005D0202380F84230002303637047026833
:1011100002F10C0353E8003F23F010030C3242E8C5
:1011200000310029F3D1ECE710B5044602681369D9
:1011300023F44053C1680B4313618368026913436E
:1011400042691A430168CB6823F4B05323F00C03BF
:101150001343CB600268536923F4407381690B43E6
:1011600053610268134B9A4220D0FFF78FFF02466B
:1011700002EB820202EB820263689B00B2FBF3F295
:101180000D48A0FB02314909642303FB11231B0115
:101190003233A0FB03035B0903F0F00202EB011200
:1011A00003F00F03216813448B6010BDFFF77EFF2F
:1011B0000246DDE7003801401F85EB512DE9F04381
:1011C00083B005460E4617469946DDF828802B6801
:1011D0001C6836EA04040CBF01240024BC4228D158
:1011E000B8F1FF3FF3D0FFF7E3F9A0EB090040456A
:1011F00023D8B8F1000F22D02B68DA6812F0040F60
:10120000E5D0802EE3D0402EE1D01A6812F0080F0E
:10121000DDD0002401941A6801925B680193019B60
:101220002846FFF753FF08236B6485F840400120F0
:1012300000E0002003B0BDE8F0830320FAE70320BC
:10124000F8E760B310B5044690F8413013B3242397
:1012500084F841302268D36823F40053D3602046D9
:10126000FFF762FF2268136923F490431361226839
:10127000536923F02A0353612268D36843F400536F
:10128000D36000206064202384F8413084F8423029
:10129000606310BD80F84030FFF7CAF8D7E701203F
:1012A00070472DE9F04182B01E4690F84130DBB224
:1012B000202B56D104460D469046002955D00AB938
:1012C00001204FE000234364212380F84130FFF7E1
:1012D0006FF90746A4F82480A4F82680A368B3F524
:1012E000805F02D04FF0000814E023692BB34FF069
:1012F00000080FE0202384F84130032032E038F862
:10130000023B2268C3F308035360E28C92B2013AB5
:1013100092B2E284E38C9BB293B100963B460022EA
:1013200080212046FFF74AFF0028E3D1002DE6D0B8
:1013300015F8012B23685A60E7E7A8460025E9E77E
:1013400000963B46002240212046FFF737FF18B9A0
:10135000202384F8413005E0202384F84130032025
:1013600000E0022002B0BDE8F0810120FAE7842805
:1013700001D0033070470020704708B500F0E2FC50
:10138000002008BD2DE9F04387B00E464469C4B182
:101390008569B5B14768D0F80080D0F81090B0F9F1
:1013A0000800FFF7E4FF02950194009033464A4697
:1013B0004146384600F058FC0590059807B0BDE856
:1013C000F083446805680769B0F90800FFF7CFFFAC
:1013D00005AB019300903346BAB22946204600F08F
:1013E0007EFC0128E9D00020E8E708B500B901201B
:1013F00000F0F2FD002008BD00F1080343604FF04B
:10140000FF328260C36003610023036070470023E2
:101410000361704743684B609A688A6051609960C5
:101420000861036801330360704730B40D68B5F19B
:10143000FF3F11D000F108031C465B681A68AA42FE
:10144000FAD963684B6099608C60616008610368D9
:101450000133036030BC70470469F2E703694168F7
:1014600082688A60416851605A68824206D00022D0
:1014700002611A68013A1A601868704782685A60F7
:10148000F5E7000082B0002301930D4B1B68B3F118
:10149000FF3F08D04FF0500383F31188BFF36F8FE5
:1014A000BFF34F8FFEE74FF0500383F31188BFF374
:1014B0006F8FBFF34F8F019B002BFCD002B07047A2
:1014C0000C00002006480068006880F3088862B6B7
:1014D00061B6BFF34F8FBFF36F8F00DF00BF000017
:1014E00008ED00E04FF0807340F8043C21F001016A
:1014F00040F8081C034B40F80C3C40F8202C4038C6
:10150000704700BF851400080000000000000000C4
:10151000074B19680868B0E8F00F80F30988BFF33B
:101520006F8F4FF0000080F311884EF00D0E704762
:10153000681000204FF0500383F31188BFF36F8FC2
:10154000BFF34F8F0B4A136801331360012B00D098
:1015500070474FF0E023D3F8043D13F0FF0FF7D0AE
:101560004FF0500383F31188BFF36F8FBFF34F8F9A
:10157000FEE700BF0C000020094B1B6843B94FF089
:10158000500383F31188BFF36F8FBFF34F8FFEE7D4
:10159000013B034A13600BB983F31188704700BF06
:1015A0000C0000200000000000000000000000000F
:1015B000EFF30980BFF36F8F0D4B1A6820E9F00F2E
:1015C00010602DE908404FF0500080F3118800F0C2
:1015D00029FD4FF0000080F31188BDE8084019682C
:1015E0000868B0E8F00F80F30988BFF36F8F704789
:1015F0006810002008B54FF0500383F31188BFF343
:101600006F8FBFF34F8F00F0DFFB28B14FF0E02367
:101610004FF08052C3F8042D002383F3118808BDD6
:101620004FF0E022002313619361054B1B680549CD
:10163000A1FB03139B09013B53610723136170470F
:1016400000000020D34D621010B582B02A4B1A78EA
:10165000D2B20192FF221A701B78DBB28DF80330F0
:101660009DF8033003F05003244A1370244B0722E3
:101670001A6009E0224A1368013B13609DF80330A9
:101680005B00DBB28DF803309DF8033013F0800F60
:10169000F0D11B4B1B68032B08D04FF0500383F392
:1016A0001188BFF36F8FBFF34F8FFEE71B02144A01
:1016B000136003F4E0631360019BDBB20E4A137006
:1016C0004FF0E023D3F8202D42F47002C3F8202D10
:1016D000D3F8202D42F07042C3F8202DFFF7A0FF71
:1016E0000024084B1C60FFF7EDFE00F09BFCFFF7A9
:1016F000C9FE204602B010BD00E400E01C0300203B
:10170000180300200C000020124A12F0070F1ED010
:10171000D11D21F00701C1F5406313440A460E486C
:101720000260002141601344083B23F007030B488B
:10173000036059601960991A51601360084B196071
:10174000084B1960084B4FF000421A6070474FF485
:101750004063E4E740030020380300203403002006
:101760002C0300203003002020030020154B1A46D4
:101770001B688342FBD3516802EB010C844509D0FE
:10178000416800EB010C634509D00360904218D01A
:10179000106070474068014451601046F0E710B493
:1017A000094C2468A3420AD05B681944416013685D
:1017B0001B680360904200D0106010BC704704604A
:1017C000F8E77047380300203403002038B504469A
:1017D00000F0F2FA384B1B68B3B1384B1B681C425F
:1017E00050D1002C50D004F1080214F0070F02D0A1
:1017F00022F007020832002A55D0314B1B68934271
:1018000053D330490C6804E0FFF77EFFE5E721463B
:101810001C466368934202D22368002BF7D1264B03
:101820001B68A34243D00D68083523680B606368CA
:101830009B1A102B10D9A01810F0070F08D04FF0EA
:10184000500383F31188BFF36F8FBFF34F8FFEE711
:1018500043606260FFF78AFF626819490B689B1A50
:101860000B60194909688B4201D217490B60134B71
:101870001B681343636000232360144A1368013319
:10188000136002E0002500E0002500F029FB15F0C0
:10189000070F0ED04FF0500383F31188BFF36F8F03
:1018A000BFF34F8FFEE70025EFE70025EDE70025AA
:1018B000EBE7284638BD00BF34030020200300209A
:1018C00030030020380300202C03002028030020D0
:1018D000002834D038B50446A0F1080550F8043C7F
:1018E000174A1268134208D14FF0500383F311884E
:1018F000BFF36F8FBFF34F8FFEE750F8081C41B165
:101900004FF0500383F31188BFF36F8FBFF34F8FF6
:10191000FEE723EA020340F8043C00F04DFA54F8D5
:10192000041C084A13680B4413602846FFF71EFF87
:10193000054A13680133136000F0D2FA38BD7047CE
:10194000200300203003002024030020084B1B68E4
:101950001B6823B9074B4FF0FF321A607047044BE6
:101960001B68DB68DB685A68024B1A60704700BF6F
:10197000B00F0020480F00202DE9F0470746984699
:10198000089DDDF824900A9C266B02F18042013A02
:1019900006EB820626F00706C1B308464FF0000C9E
:1019A000BCF10F0F09D810F80C2004EB0C0383F8DE
:1019B000342012B10CF1010CF2E7002384F843301B
:1019C000062D00D90625E56265644FF0000AC4F8CB
:1019D00048A0201DFFF71BFD04F11800FFF717FDBD
:1019E0002461C5F10705A5616462C4F84CA084F8C0
:1019F00050A0424639463046FFF774FD2060B9F1E9
:101A0000000F01D0C9F80040BDE8F087002384F83A
:101A10003430D5E738B5002407E004EB84029300A6
:101A20000E481844FFF7E8FC0134062CF5D90C4D9C
:101A30002846FFF7E1FC0B4C2046FFF7DDFC0A4887
:101A4000FFF7DAFC0948FFF7D7FC0948FFF7D4FC99
:101A5000084B1D60084B1C6038BD00BFDC0F002028
:101A6000C80F0020B40F0020980F0020840F002022
:101A70006C0F0020B00F0020AC0F002010B5044602
:101A8000FFF758FD214A136801331360204B1B6890
:101A90005BB1204B1B686BB91D4B1B68DA6AE36AAC
:101AA0009A4207D81A4B1C6004E0194B1C6013685B
:101AB000012B28D0184A136801331360E06A012310
:101AC0008340164A11680B43136000EB8000211D10
:101AD000134B03EB8000FFF79DFCFFF74DFD0D4B13
:101AE0001B687BB10A4B1B68DA6AE36A9A4209D227
:101AF0004FF0E0234FF08052C3F8042DBFF34F8F17
:101B0000BFF36F8F10BDFFF785FFD3E7680F00208D
:101B1000681000205C0F00204C0F0020600F002098
:101B2000DC0F002010B5044690F8513063B1012B52
:101B300011D0022B0ED04FF0500383F31188BFF366
:101B40006F8FBFF34F8FFEE7006BFFF7C1FE20469C
:101B5000FFF7BEFE10BDFFF7BBFEFBE70F4B1B6898
:101B6000D3B110B5FFF7E6FC0D4BDB68DC68201D38
:101B7000FFF774FC0B4A1368013B1360074A1368B4
:101B8000013B1360FFF7F8FC2046FFF7CBFF034B48
:101B90001B68002BE6D110BD704700BF800F0020EE
:101BA000840F0020680F002008B5FFF7D7FF074B10
:101BB0001B68012BF9D94FF0E0234FF08052C3F896
:101BC000042DBFF34F8FBFF36F8FEEE7DC0F0020C4
:101BD00070B504460D461D4B1E681D4B1868043039
:101BE000FFF73CFC48B91A4B1B68DB6A01229A409C
:101BF00018490B6823EA02030B60B4F1FF3F0DD0D4
:101C00003444134B1B685C60A64210D9124B186811
:101C10000F4B19680431FFF708FC70BD002DEFD0A1
:101C20000B4B196804310D48FFF7F4FBF5E70C4B3B
:101C30001868074B19680431FFF7F7FB094B1B685D
:101C4000A342EAD9074B1C60E7E700BF640F0020FE
:101C500068100020600F0020AC0F00206C0F0020E7
:101C6000B00F0020480F002030B587B00B9C7CB12E
:101C70000C9DB5B154250495049D542D1AD04FF0F8
:101C8000500383F31188BFF36F8FBFF34F8FFEE7CD
:101C90004FF0500383F31188BFF36F8FBFF34F8F63
:101CA000FEE74FF0500383F31188BFF36F8FBFF34C
:101CB0004F8FFEE7049D0C9D2C63022485F8514054
:101CC00000240394029505AC01940A9C0094FFF74C
:101CD00053FE0C98FFF7D2FE059807B030BD2DE9F2
:101CE000F04385B00746884614461E469000FFF72D
:101CF0006DFD08B381465420FFF768FD0546A8B185
:101D0000C0F83090002380F85130039302900D9B6F
:101D100001930C9B00933346224641463846FFF719
:101D20002BFE2846FFF7AAFE012007E04846FFF7F2
:101D3000CFFD4FF0FF3001E04FF0FF3005B0BDE8C0
:101D4000F083000010B588B000240594069407AA1B
:101D500006A905A8FEF726FA059B0293069B0193A8
:101D600000942346079A0E490E48FFF77DFF0E4B5D
:101D7000186090B14FF0500383F31188BFF36F8F59
:101D8000BFF34F8F094B4FF0FF321A60084B01220F
:101D90001A60084B1C60FFF757FC08B010BD00BF6D
:101DA00054280008A91B0008440F0020480F0020F9
:101DB0005C0F0020640F0020024A13680133136097
:101DC000704700BF400F0020F8B53A4B1B68002B4E
:101DD00069D1394B1D6801351D60C5B9374B1B688A
:101DE0001B6843B14FF0500383F31188BFF36F8F2B
:101DF000BFF34F8FFEE7314A1168314B186810600E
:101E00001960304A136801331360FFF79FFD2E4BB2
:101E10001B68AB423DD900272C4B1B68DB6A03EBE8
:101E200083039A002A4B9B58012B00D90127294B89
:101E30001B68002B3CD001273AE001271F4B1B6891
:101E40001B6843B31D4B1B68DB68DC6863689D42FD
:101E500026D3261D3046FFF701FBA36A1BB104F110
:101E60001800FFF7FBFAE36A01229A401A49086852
:101E700002430A6003EB83039A003146144810447E
:101E8000FFF7C8FAE26A114B1B68DB6A9A42D4D2A8
:101E9000D4E70027D2E70C4B4FF0FF321A60BBE7C4
:101EA000094A1360B8E70D4A13680133136000272D
:101EB0003846F8BD400F0020640F0020B00F00200E
:101EC000AC0F0020500F0020480F002068100020A9
:101ED000DC0F0020540F0020600F0020580F00205E
:101EE00038B5354B1B6843B94FF0500383F3118865
:101EF000BFF36F8FBFF34F8FFEE7FFF71BFB2E4B38
:101F00001A68013A1A601B68002B4FD12B4B1B68D3
:101F10000BB900244BE00024294B1B681BB3284B52
:101F2000DB68DC6804F11800FFF798FA251D2846E5
:101F3000FFF794FAE06A01238340224A11680B43B9
:101F4000136000EB800029461F4B03EB8000FFF776
:101F500061FAE26A1D4B1B68DB6A9A42DCD31C4BB8
:101F600001221A60D8E70CB1FFF7F0FC194B1C688E
:101F700084B9174B1C68D4B14FF0E0234FF0805266
:101F8000C3F8042DBFF34F8FBFF36F8F01240EE012
:101F9000013C07D0FFF718FF0028F9D00C4B0122B5
:101FA0001A60F5E70B4B00221A60E2E70024FFF706
:101FB000E3FA204638BD00BF400F0020680F002024
:101FC000980F0020600F0020DC0F00206810002018
:101FD000540F0020580F002010B5A8B10446104B34
:101FE0001B6843B14FF0500383F31188BFF36F8F29
:101FF000BFF34F8FFEE7FFF7DFFE00212046FFF71C
:10200000E7FDFFF76DFF48B94FF0E0234FF0805236
:10201000C3F8042DBFF34F8FBFF36F8F10BD00BF08
:10202000400F0020204B1B681BB1204B01221A607F
:1020300070471E4B00221A601D4B1B68B3FA83F3D6
:10204000DBB2C3F11F0303EB83018A0019498A58ED
:1020500042B94FF0500383F31188BFF36F8FBFF382
:102060004F8FFEE7134803EB83018A000244516857
:102070004968516003EB830C4FEA8C02083202443A
:10208000914209D003EB83039A000A4B13445B6827
:10209000DA68094B1A607047486862469100054A41
:1020A0000A445060EEE700BF400F0020540F0020AC
:1020B000600F0020DC0F002068100020054B1B681B
:1020C00033B1054B1B680BB10020704702207047ED
:1020D000012070475C0F0020400F002008B530B988
:1020E00000224FF480710548FEF7C6FC08BD0122AE
:1020F0004FF480710148FEF7BFFCF7E7000C014088
:1021000008B530B900224FF400710548FEF7B4FC61
:1021100008BD01224FF400710148FEF7ADFCF7E75E
:10212000000C014010B586B0002204E00133B3F585
:102130007A7FFBD30132B2F57A7F01D20023F6E732
:10214000144B9A6942F008029A619B6903F00803F4
:102150000193019B002302930393049305934FF48F
:102160008073029311230393032305930A4C02A95E
:102170002046FEF773FB4FF40073029302A920463A
:10218000FEF76CFB0120FFF7A9FF0120FFF7B8FF66
:1021900006B010BD00100240000C014008B501203F
:1021A000FFF7AEFF0120FFF799FF0020FFF7A8FF20
:1021B0000020FFF793FF08BD08B50020FFF7A0FF40
:1021C0000120FFF78BFF0120FFF79AFF08BD38B50C
:1021D000054600240FE0802323411D4214BF012047
:1021E0000020FFF78DFF0120FFF778FF0020FFF7A9
:1021F00075FF0134E4B2072CEDD90120FFF76EFF23
:102200000020FFF76BFF38BD10B50446FFF7C6FF8F
:102210007820FFF7DCFF0020FFF7D9FF2046FFF70B
:10222000D6FFFFF7C9FF10BD70B506460D46FFF794
:10223000B5FF7820FFF7CBFF4020FFF7C8FF002451
:1022400004E0305DFFF7C3FF0134E4B2AC42F8D3E1
:10225000FFF7B2FF70BD10B50C4640F0B000FFF7BD
:10226000D3FF200940F01000FFF7CEFF04F00F006D
:10227000FFF7CAFF10BD000010B500240BE00021DD
:102280002046FFF7E8FF8021044800EBC410FFF769
:10229000CBFF0134E4B2072CF1D910BD6C10002043
:1022A00000200BE0084A02EBC0120021D154013398
:1022B000DBB213F0800FF5D00130C0B2072801D88F
:1022C0000023F6E7704700BF6C10002008B5FFF749
:1022D00029FFAE20FFF798FFD520FFF795FF80205C
:1022E000FFF792FFA820FFF78FFF3F20FFF78CFF3B
:1022F000D320FFF789FF0020FFF786FF4020FFF77C
:1023000083FFA120FFF780FFC820FFF77DFFDA20C1
:10231000FFF77AFF1220FFF777FF8120FFF774FFA6
:10232000CF20FFF771FFD920FFF76EFFF120FFF7F5
:102330006BFFDB20FFF768FF3020FFF765FFA4206D
:10234000FFF762FFA620FFF75FFF8D20FFF75CFF1E
:102350001420FFF759FFAF20FFF756FFFFF7A0FF4C
:10236000FFF78AFF08BD00002DE9F04114461D4625
:102370000B4634E046F3CF061C4F07EBC61717F8A1
:102380000280D3F1000E03F007060EF0070E58BFCF
:10239000CEF100064FF0010E0EFA06FE6FEA0E0EA9
:1023A0004FFA8EFE08EA0E0807F802800CF1010CC5
:1023B0000FFA8CFC624600EB040EF4450DDA1FFAAE
:1023C0008CFCBCF17F0FF1D8002BEFDB3F2BEDDC59
:1023D0001E46002BCEDADE1DCCE701331BB24A19B4
:1023E000934201DA8446E5E7BDE8F0816C100020F5
:1023F0002DE9F04F83B006460C4615469A460C9FD1
:10240000FFF7B2FF4FF0000B4DE0E21D0DE0013A87
:10241000083116E00133DBB2AB423ED29C46F018E5
:102420007F28F7D82246002CEFDBD210D4F1000E23
:1024300004F007010EF0070E58BFCEF10001002C8A
:10244000E5DB4244072A0FD8DFF87CE00EEBC21E22
:102450001EF8009008FB05CB17F80BB00BFA01FB38
:1024600049EA0B090EF8009002F1010EBEF1070FC8
:10247000D0D87246DFF850E00EEBC21212F800E03E
:1024800008FB05CC17F80CC0C1F108014CFA01F1AA
:102490004EEA010E02F800E0BCE7DDF804B00BF1F3
:1024A000010B5FFA8BFBBAF1010307D4D846BBEBF3
:1024B000E30F05DC0023CDF804B0ADE70733F5E703
:1024C00003B0BDE8F08F00BF6C10002000B583B0F2
:1024D000082B04D0062B0CD003B05DF804FB203A87
:1024E0000A4B03EB0213009310230822FFF780FF2F
:1024F000F2E7203A02EB4202054B03EB4203009362
:1025000008230622FFF774FFE6E700BFC02B000890
:10251000842900082DE9F04F85B083468A4690460D
:102520001F46002635464CE003F0E002C02A2BD0BF
:1025300003F0F002E02A53D003F0F802F02A68D149
:102540006A1C92B28DF8083018F80220002A00F0B8
:102550009680AB1C9BB28DF8092018F80320002A46
:1025600000F08D80EB1C9BB28DF80A2018F8033028
:10257000002B00F084800435ADB28DF80B300023C1
:102580008DF80C3004230FE06A1C92B28DF80830ED
:1025900018F80230002B72D00235ADB28DF8093038
:1025A00000238DF80A300223012B35D106EB0B00F6
:1025B0003B469DF80820514600B2FFF787FF3E4496
:1025C000B6B218F80530002B59D013F0800FABD1FC
:1025D0000135ADB28DF8083000238DF80930E5E7FC
:1025E0006A1C92B28DF8083018F80220002A46D0F2
:1025F000AB1C9BB28DF8092018F80330002B3ED09D
:102600000335ADB28DF80A3000238DF80B3003236B
:10261000CAE70135ADB2D4E70024A14604EBC403F8
:1026200004EB8303174A9818D35C33B102A9FDF772
:102630008FFD10B10134A4B2EFE7082F0CD0062FA4
:10264000BFD106EB0B0006233F22514600B2FFF735
:102650003DFF0636B6B2B4E706EB0B0009EBC90343
:1026600009EB8303074A13440533009310231A46EA
:10267000514600B2FFF7BCFE1036B6B2A1E705B076
:10268000BDE8F08F5C28000803460244934200D165
:10269000704703F8011BF9E770B500260C4D0D4C8F
:1026A000641BA410A64209D100F080F800260A4D50
:1026B0000A4C641BA410A64205D170BD55F8043B1A
:1026C00098470136EEE755F8043B98470136F2E7A4
:1026D000B8310008B8310008B8310008C03100082E
:1026E00070477047024B13B1024800F005B87047BD
:1026F0000000000005270008002301461A4618467E
:1027000000F014B838B5074D074C641BA4101CB971
:10271000BDE8384000F050B8013C55F824309847E7
:10272000F5E700BFC0310008C43100082DE9F047CB
:10273000DFF86CA00646DAF8000098460F4691468E
:10274000FFF7CEFF174B1C680CB9174C1C6065686F
:10275000DAF800001F2D05DDFFF7C3FF4FF0FF3053
:10276000BDE8F0879EB1012204EB8501C1F8889095
:10277000D4F88831AA401343C4F88831022EC1F836
:10278000088102BFD4F88C311343C4F88C316B1C20
:102790000235636044F82570FFF7A3FF0020DFE7F0
:1027A000100000207014002074140020F8B500BF41
:1027B000F8BC08BC9E467047F8B500BFF8BC08BC22
:0427C0009E4670477A
:1027C400E027000899010008000000000000000054
:1027D40080000000000000000000000064656661E5
:1027E400756C745461736B0064617361736400008D
:1027F40048656C6C6F2C20576F726C64210000006C
:1028040068656C6C6F0D0A00446973706C617920A3
:102814005461736B0000000077726F64205461731D
:102824006B0000000000000001020304000000002F
:102834000000000001020304060708090102000069
:1028440002030405060708090A0B0C0D0E0F1010ED
:1028540049444C4500000000E4BDA0000000806035
:10286400F8074020180F08C80808281800010000BD
:10287400FF00100C0340807F0001061800E5A5BD91
:1028840000001010F01F10F000808282E2928A860D
:102894008000402215081661000040807F0000007F
:1028A4000000E4B8960000202020FE2020FF202015
:1028B40020FF20202020000000007F4040474444A7
:1028C40044474040400000E7958C0000000000FEB3
:1028D400929292FE929292FE0000000008080484F4
:1028E400621E010001FE020404080800E696B90015
:1028F400000808080808F8898E8888888808080865
:102904000000804020180700004080403F00000085
:1029140000E5AEB60000102C2424A4A465A624244B
:102924002424A4340C0040494929241452897F04E6
:102934000A1110202000E4BF8A0000008060F8071C
:102944000010985493101054983000010000FF00B8
:10295400808944462B122A46808100000000000032
:10296400FF0101013109090909897101010101FF0F
:10297400FF8080808080809681808080808080FF3E
:102984000000000000000000002F0000000007000D
:10299400070000147F147F1400242A7F2A120023C6
:1029A40013086462003649552250000000070000F5
:1029B40000001C224100000041221C000014083EBB
:1029C40008140008083E0808000000A06000000881
:1029D40008080808000060600000002010080402D5
:1029E400003E5149453E0000427F40000042615193
:1029F4004946002141454B31001814127F1000272D
:102A040045454539003C4A494930000171090503EF
:102A140000364949493600064949291E0000363620
:102A24000000000056360000000814224100001483
:102A34001414141400004122140800020151090660
:102A4400003E4955592E007C1211127C007F4949E1
:102A54004936003E41414122007F4141221C007F12
:102A640049494941007F09090901003E4149497A20
:102A7400007F0808087F0000417F4100002040419A
:102A84003F01007F08142241007F40404040007F06
:102A9400020C027F007F0408107F003E4141413E4A
:102AA400007F09090906003E4151215E007F091992
:102AB40029460046494949310001017F0101003F8F
:102AC4004040403F001F2040201F003F4038403F0F
:102AD4000063140814630007087008070061514973
:102AE400454300007F41410000020408102000001B
:102AF40041417F0000040201020400404040404084
:102B0400000001020400002054545478007F48441B
:102B1400443800384444442000384444487F003852
:102B24005454541800087E0901020018A4A4A47C7B
:102B3400007F080404780000447D40000040808445
:102B44007D00007F102844000000417F4000007C8D
:102B540004180478007C0804047800384444443899
:102B640000FC242424180018242418FC007C0804E5
:102B7400040800485454542000043F444020003CBE
:102B84004040207C001C2040201C003C4030403C45
:102B9400004428102844001CA0A0A07C00446454D5
:102BA4004C440000087F41000000007F000000004A
:102BB400417F08000008040810080000000000001D
:102BC400000000000000000000000000000000F809
:102BD40000000000000000333000000000160E006A
:102BE400160E0000000000000000000040C0784005
:102BF400C0784000043F04043F040400007088FCD3
:102C040008300000001820FF211E0000F008F0002A
:102C1400E018000000211C031E211E0000F008889B
:102C2400700000001E212324192721100000001623
:102C34000E0000000000000000000000000000E0A2
:102C440018040200000000071820400000020418C5
:102C5400E00000000040201807000000404080F021
:102C6400804040000202010F01020200000000F057
:102C7400000000000101011F01010100000000002B
:102C84000000000000B07000000000000000000020
:102C94000000000000010101010101010000000029
:102CA40000000000003030000000000000000000C0
:102CB40080601804006018060100000000E010089D
:102CC4000810E000000F102020100F00001010F872
:102CD400000000000020203F2020000000700808B1
:102CE4000888700000302824222130000030088831
:102CF400884830000018202020110E000000C02059
:102D040010F8000000070424243F240000F8088879
:102D1400880808000019212020110E0000E0108806
:102D240088180000000F112020110E000038080838
:102D3400C83808000000003F000000000070880848
:102D440008887000001C222121221C0000E01008C9
:102D54000810E0000000312222110F00000000C022
:102D6400C00000000000003030000000000000C07F
:102D7400C0000000000080B070000000000080402F
:102D840020100800000102040810200040404040C8
:102D9400404040000404040404040400000810201B
:102DA4004080000000201008040201000070480860
:102DB4000808F0000000003036010000C030C828C8
:102DC400E810E0000718272423140B000000C03883
:102DD400E0000000203C23020227382008F88888FD
:102DE40088700000203F202020110E00C030080809
:102DF40008083800071820202010080008F80808E0
:102E04000810E000203F202020100F0008F88888D8
:102E1400E8081000203F20202320180008F88888A4
:102E2400E8081000203F200003000000C03008081C
:102E34000838000007182020221E020008F80800A5
:102E44000008F808203F210101213F20000808F86C
:102E5400080800000020203F20200000000008088F
:102E6400F8080800C08080807F00000008F888C04F
:102E740028180800203F20012638200008F8080000
:102E840000000000203F20202020300008F8F80037
:102E9400F8F80800203F003F003F200008F830C049
:102EA4000008F808203F200007183F00E010080839
:102EB4000810E0000F10202020100F0008F8080868
:102EC4000808F000203F210101010000E01008087B
:102ED4000810E0000F18242438504F0008F88888A0
:102EE40088887000203F2000030C30200070880880
:102EF400080838000038202121221C00180808F88E
:102F0400080818000000203F2000000008F808000E
:102F14000008F808001F202020201F0008788800DF
:102F240000C83808000007380E010000F80800F84F
:102F34000008F800033C0700073C030008186880F9
:102F44008068180820302C03032C30200838C8006F
:102F5400C83808000000203F2000000010080808BE
:102F6400C83808002038262120201800000000FE60
:102F7400020202000000007F40404000000C30C00C
:102F840000000000000000010638C0000002020238
:102F9400FE000000004040407F00000000201008B8
:102FA40004081020000000000000000000000000E1
:102FB40000000000808080808080808000020408FF
:102FC40000000000000000000000000000008080FD
:102FD400808000000019242222223F2008F800806B
:102FE40080000000003F112020110E00000000802E
:102FF40080800000000E11202020110000000080BD
:103004008088F800000E112020103F2000008080EE
:1030140080800000001F222222221300008080F002
:10302400888888180020203F20200000000080802D
:1030340080808000006B94949493600008F8008072
:1030440080800000203F210000203F2000809898CD
:10305400000000000020203F20200000000000802D
:103064009898000000C08080807F000008F800006D
:1030740080808000203F24022D302000000808F8C2
:10308400000000000020203F20200000808080807D
:1030940080808000203F20003F20003F008080008F
:1030A4008080000000203F2100203F20000080801D
:1030B40080800000001F202020201F0080800080CE
:1030C4008000000080FFA12020110E00000000807D
:1030D40080808000000E112020A0FF80808080006E
:1030E4008080800020203F2120000100000080809B
:1030F400808080000033242424241900008080E090
:10310400808000000000001F20200000808000005C
:1031140000808000001F202020103F20808080003D
:103124000080808000010E3008060100808000804D
:10313400008080800F300C030C300F000080800072
:10314400808080000020312E0E312000808080009D
:103154000080808080818E7018060100008080804D
:10316400808080000021302C2221300000000000EB
:10317400807C020200000000003F4040000000008C
:10318400FF00000000000000FF0000000002027CBD
:10319400800000000040403F0000000000804040EC
:0C31A4008000008000000000000101001D
:0831B000A0CFFF7F0100000029
:0831B800E526000835010008BE
:0431C00011010008F1
:1031C40000127A000100000010000000AAAAAAAAB6
:0431D4006C14002057
:04000005080004DD0E
:00000001FF
