:020000040800F2
:1000000000500020BD030008990300089B0300086E
:100010009D0300089F030008A103000800000000E2
:10002000000000000000000000000000310F000888
:10003000A303000800000000D10F0008A50300087A
:10004000050400080504000805040008050400086C
:10005000050400080504000805040008050400085C
:10006000050400080504000805040008050400084C
:10007000050400080504000805040008050400083C
:10008000050400080504000805040008050400082C
:10009000050400080504000805040008050400081C
:1000A000050400080504000805040008050400080C
:1000B00005040008050400080504000805040008FC
:1000C00005040008050400080504000805040008EC
:1000D00005040008050400080504000805040008DC
:1000E00005040008050400080504000800000000DD
:1000F0000000000000000000000000000000000000
:0C01000000000000000000005FF808F1A3
:1001100010B5054C237833B9044B13B10448AFF341
:1001200000800123237010BD540000200000000057
:10013000A421000808B5034B1BB103490348AFF3E2
:10014000008008BD0000000058000020A421000825
:10015000F0B583B0054601F02DFE00240BE010231E
:1001600040226978287801F089FE002001F0FAFA2F
:10017000642001F0B1FC0C4B1B78002BF8D0312C23
:10018000EDDC094E002333702878671C08230093A8
:10019000062322466978023001F046FF01F0F6FDA1
:1001A000012333703C46E3E70000002008B501203E
:1001B00000F02EFEFBE70000034B0360034B0B60D7
:1001C00080231360704700BF700200207000002081
:1001D00070B58AB00DF10C0C154C0FCCACE80F00CB
:1001E00094E807008CE80700002103A800F0DDFD7B
:1001F000104B1860104C00260196012500950F4BFE
:1002000080220F49204601F07AFA019600950D4BA5
:1002100080220D49204601F072FA019600950B4BA1
:1002200080220B49204601F06AFA0AB070BD00BF77
:10023000BC210008C4020020510100082C0000204D
:10024000D821000818000020E82100080400002040
:10025000F821000830B589B0002404940594069470
:100260000794184B9A6942F010029A619A6902F059
:1002700010020192019A9A6942F020029A619A69E9
:1002800002F020020292029A9A6942F004029A61F4
:100290009B6903F004030393039B0B4D22464FF429
:1002A0000051284600F072FA4FF4005304931123D2
:1002B000059306940223079304A9284600F058F9F1
:1002C00009B030BD001002400010014072B6FEE7D8
:1002D00000B591B02822002106A801F0D1FE00232C
:1002E000019302930393049305930223069301233E
:1002F0000A9310230B9306A800F064FA68B90F2341
:1003000001930021029103910491059101A800F04D
:100310008BFC20B911B05DF804FBFFF7D7FFFFF7A6
:10032000D5FF08B500F096F801F05AFDFFF7D0FFB1
:10033000FFF790FFFFF74CFF01F052FD00F030FD9A
:10034000FEE7000000B583B0114B9A6942F001024C
:100350009A619A6902F001020092009ADA6942F009
:100360008052DA61DB6903F080530193019B002224
:100370000F216FF0010000F0D7F8064A536823F010
:10038000E06343F00073536003B05DF804FB00BF0B
:100390000010024000000140FEE7FEE7FEE7FEE736
:1003A000FEE7704708B500F067F801F007FC012888
:1003B00000D108BD00F02EFEFBE77047FFF7FDFF00
:1003C0000B480C490C4A002302E0D458C4500433B3
:1003D000C4188C42F9D3094A094C002301E0136088
:1003E0000432A242FBD301F053FEFFF79AFF70479D
:1003F0000000002054000020782A0008540000204B
:10040000B8150020FEE7000010B504460E4B1A7820
:100410004FF47A73B3FBF2F30C4A1068B0FBF3F0BD
:1004200000F092F868B90F2C01D901200AE00022EF
:1004300021464FF0FF3000F077F8054B1C6000209C
:1004400000E0012010BD00BF44000020400000205B
:100450004800002008B5074A136843F010031360F2
:10046000032000F04FF80F20FFF7CEFFFFF76AFFE1
:10047000002008BD00200240034A1168034B1B788E
:100480000B441360704700BFC802002044000020E6
:10049000014B1868704700BFC8020020002808DB25
:1004A0000901C9B200F1604000F5614080F8001315
:1004B000704700F00F000901C9B2014B1954704791
:1004C00014ED00E000B500F00700C0F1070CBCF12E
:1004D000040F28BF4FF0040C031D062B0FD9C31EB9
:1004E0004FF0FF3E0EFA0CF021EA000199400EFA9F
:1004F00003FE22EA0E0241EA02005DF804FB00233B
:10050000EEE70000074AD36823F4E0631B041B0CEA
:10051000000200F4E060034343F0BF6343F40033A0
:10052000D360704700ED00E010B50446054BD86875
:10053000C0F30220FFF7C6FF01462046FFF7AEFFDB
:1005400010BD00BF00ED00E00138B0F1807F0BD29C
:100550004FF0E0235861054AF02182F82310002073
:10056000986107221A6170470120704700ED00E092
:1005700070B582B00024A446A2E07E4DAB4210D0FC
:1005800007D97D4DAB420CD005F58035AB4208D084
:1005900013E0A5F58015AB4203D005F57025AB42FD
:1005A00007D18B68002B55D0012B4ED04261082417
:1005B00003E0A5F58015AB42F3D0BEF1FF0F4BD899
:1005C00006464FEA8C0233680F25954023EA05035F
:1005D00004FA02F2134333604B6813F0805F6DD06E
:1005E000664B9A6942F001029A619B6903F001032C
:1005F0000193019B4FEA9C02951C614B53F82560C7
:100600000CF00305AD000F23AB4026EA03065D4B5B
:10061000984228D003F58063984200F08D8003F55E
:100620008063984200F08A8003F58063984218D076
:10063000042319E0CC68C0E7CC680434BDE7CC687B
:100640000834BAE7CC680C34B7E702610824B4E791
:100650000024B2E70424B0E7061DACF108029200C2
:10066000B1E7032300E00023AB4033430232444DA3
:1006700045F822304B6813F4801F61D0424A9368DA
:1006800043EA0E0393604B6813F4001F5ED03E4AAA
:10069000D36843EA0E03D3604B6813F4003F5BD08A
:1006A000394A536843EA0E0353604B6813F4803FA2
:1006B00058D0354A136843EA0E0313600CF1010C5D
:1006C0000B6833FA0CF253D0012202FA0CF203EA5F
:1006D000020E32EA0303F1D14B68122B3FF64DAF05
:1006E000122B3FF66AAF01A555F823F0A3050008C9
:1006F000350600083F06000851060008BB05000843
:10070000BB050008BB050008BB050008BB050008C9
:10071000BB050008BB050008BB050008BB050008B9
:10072000BB050008BB050008BB050008BB050008A9
:100730003906000845060008012395E7022393E7E0
:10074000114A936823EA0E0393609CE70E4AD3682C
:1007500023EA0E03D3609FE70B4A536823EA0E0394
:100760005360A2E7084A136823EA0E031360A5E763
:1007700002B070BD000022100000311000100240D5
:100780000000014000080140000401400AB101617D
:10079000704709040161704782B0084B1B68084A22
:1007A000A2FB03235B0A00FB03F3019300BF019B41
:1007B0005A1E0192002BF9D102B070474000002070
:1007C000D34D6210002800F0F18170B582B004466C
:1007D000036813F0010F2CD0994B5B6803F00C03F6
:1007E000042B1DD0964B5B6803F00C03082B12D032
:1007F0006368B3F5803F41D0002B55D103F18043AE
:1008000003F504331A6822F480321A601A6822F45D
:1008100080221A6037E08A4B5B6813F4803FE7D090
:10082000874B1B6813F4003F03D06368002B00F074
:10083000BF81236813F0020F75D0814B5B6813F002
:100840000C0F5FD07E4B5B6803F00C03082B54D079
:100850002369002B00F08A807A4B01221A60FFF78F
:1008600017FE0546764B1B6813F0020F75D1FFF794
:100870000FFE401B0228F5D903209EE1704A136841
:1008800043F480331360636843B3FFF701FE05460A
:100890006B4B1B6813F4003FCBD1FFF7F9FD401BF6
:1008A0006428F5D9032088E1B3F5A02F09D0644B63
:1008B0001A6822F480321A601A6822F480221A60C0
:1008C000E1E703F18043A3F53C331A6842F4802248
:1008D0001A601A6842F480321A60D4E7FFF7D8FD34
:1008E0000546574B1B6813F4003FA2D0FFF7D0FD1D
:1008F000401B6428F5D903205FE1514B5B6813F47A
:10090000803FA5D14E4B1B6813F0020F03D0236923
:10091000012B40F04F814A4A136823F0F8036169C4
:1009200043EAC1031360236813F0080F33D0A369AF
:10093000002B5CD0434B0122C3F88024FFF7A8FDB5
:1009400005463F4B5B6A13F0020F21D1FFF7A0FD74
:10095000401B0228F5D903202FE1394A136823F000
:10096000F803616943EAC1031360DCE7354B0022F9
:100970001A60FFF78DFD0546314B1B6813F0020F1F
:10098000D1D0FFF785FD401B0228F5D9032014E1E3
:100990000120FFF701FF236813F0040F00F0968099
:1009A000274BDB6913F0805F34D1254BDA6942F0C5
:1009B0008052DA61DB6903F080530193019B0125CA
:1009C000214B1B6813F4807F26D0E368012B3DD0B8
:1009D000002B53D103F1804303F504331A6A22F04C
:1009E00001021A621A6A22F004021A6233E0154BFD
:1009F0000022C3F88024FFF74BFD0546104B5B6ACD
:100A000013F0020FC7D0FFF743FD401B0228F5D9B2
:100A10000320D2E00025D3E70B4A136843F4807328
:100A20001360FFF735FD0646074B1B6813F4807F04
:100A3000CBD1FFF72DFD801B6428F5D90320BCE046
:100A40000010024000004242007000405F4A136AFA
:100A500043F001031362E36833B3FFF719FD064661
:100A60005A4B1B6A13F0020F2FD1FFF711FD801BA9
:100A700041F288339842F3D903209EE0052B09D038
:100A8000524B1A6A22F001021A621A6A22F0040218
:100A90001A62E0E74D4B1A6A42F004021A621A6ABF
:100AA00042F001021A62D6E7FFF7F2FC0646474B16
:100AB0001B6A13F0020F08D0FFF7EAFC801B41F21B
:100AC00088339842F3D9032077E0E5B9E369002B36
:100AD00072D03E4A526802F00C02082A56D0022B0D
:100AE00017D03B4B00221A66FFF7D2FC0446374B67
:100AF0001B6813F0007F47D0FFF7CAFC001B0228D9
:100B0000F5D9032059E0314AD36923F08053D361EA
:100B1000DCE72F4B00221A66FFF7BAFC05462B4B89
:100B20001B6813F0007F06D0FFF7B2FC401B0228C1
:100B3000F5D9032041E0236AB3F5803F1AD0234959
:100B40004B6823F47413226A606A024313434B60B8
:100B50001F4B01221A66FFF79BFC04461B4B1B68C8
:100B600013F0007F0ED1FFF793FC001B0228F5D98C
:100B7000032022E0154A536823F40033A1680B4395
:100B80005360DCE7002018E0002016E0012B16D0AF
:100B90000E4B5B6803F48031226A914211D103F459
:100BA0007013626A93420ED1002006E00120704764
:100BB000012002E0012000E0002002B070BD012011
:100BC000FBE70120F9E70120F7E700BF0010024032
:100BD000000042420F4B5B6803F00C02082A01D070
:100BE0000D487047C3F383420C49885C13F4803F7F
:100BF0000BD0084B5B68C3F34043094AD35C064AF9
:100C000002FB00F0B0FBF3F07047064B03FB00F073
:100C1000704700BF0010024000127A00282200082E
:100C20002422000800093D00002800F0A08070B5D3
:100C30000D460446524B1B6803F007038B420BD250
:100C40004F4A136823F007030B431360136803F044
:100C500007038B4240F08D80236813F0020F17D0FA
:100C600013F0040F04D0474A536843F4E063536021
:100C7000236813F0080F04D0424A536843F46053CA
:100C80005360404A536823F0F003A1680B4353605C
:100C9000236813F0010F31D06368012B20D0022BA1
:100CA00025D0384A126812F0020F64D035494A68DC
:100CB00022F0030213434B60FFF7EAFB0646314B79
:100CC0005B6803F00C036268B3EB820F16D0FFF78A
:100CD000DFFB801B41F288339842F0D9032045E0C6
:100CE000284A126812F4003FE0D101203EE0254A74
:100CF000126812F0007FD9D1012037E0204B1B6829
:100D000003F00703AB420AD91D4A136823F0070317
:100D10002B431360136803F00703AB422DD1236804
:100D200013F0040F06D0174A536823F4E063E16818
:100D30000B435360236813F0080F07D0114A536820
:100D400023F46053216943EAC1035360FFF742FF74
:100D50000C4B5B68C3F303130B4AD35CD8400B4BBB
:100D600018600B4B1868FFF74FFB002070BD012087
:100D700070470120FAE70120F8E70120F6E700BFFD
:100D80000020024000100240142200084000002011
:100D900048000020842801D00330704700207047AD
:100DA00008B500F04FFD002008BD2DE9F04387B0E5
:100DB0000E464469C4B18569B5B14768D0F8008072
:100DC000D0F81090B0F90800FFF7E4FF0295019405
:100DD000009033464A464146384600F055FC05909F
:100DE000059807B0BDE8F083446805680769B0F965
:100DF0000800FFF7CFFF05AB019300903346BAB26E
:100E00002946204600F07BFC0128E9D00020E8E7D5
:100E100008B500B9012000F05FFE002008BD00F118
:100E2000080343604FF0FF328260C3600361002318
:100E30000360704700230361704743684B609A6802
:100E40008A605160996008610368013303607047EC
:100E500030B40D68B5F1FF3F11D000F108031C4616
:100E60005B681A68AA42FAD963684B6099608C6023
:100E70006160086103680133036030BC7047046936
:100E8000F2E70369416882688A60416851605A6884
:100E9000824206D0002202611A68013A1A6018687C
:100EA000704782685A60F5E782B0002301930D4BCA
:100EB0001B68B3F1FF3F08D04FF0500383F3118854
:100EC000BFF36F8FBFF34F8FFEE74FF0500383F3F5
:100ED0001188BFF36F8FBFF34F8F019B002BFCD0A6
:100EE00002B070474C00002006480068006880F39C
:100EF000088862B661B6BFF34F8FBFF36F8F00DF14
:100F000000BF000008ED00E04FF0807340F8043CA3
:100F100021F0010140F8081C034B40F80C3C40F85C
:100F2000202C4038704700BFA90E000800000000C8
:100F3000074B19680868B0E8F00F80F30988BFF321
:100F40006F8F4FF0000080F311884EF00D0E704748
:100F50001C1000204FF0500383F31188BFF36F8FF4
:100F6000BFF34F8F0B4A136801331360012B00D07E
:100F700070474FF0E023D3F8043D13F0FF0FF7D094
:100F80004FF0500383F31188BFF36F8FBFF34F8F80
:100F9000FEE700BF4C000020094B1B6843B94FF02F
:100FA000500383F31188BFF36F8FBFF34F8FFEE7BA
:100FB000013B034A13600BB983F31188704700BFEC
:100FC0004C000020000000000000000000000000B5
:100FD000EFF30980BFF36F8F0D4B1A6820E9F00F14
:100FE00010602DE908404FF0500080F3118800F0A8
:100FF00099FD4FF0000080F31188BDE808401968A2
:101000000868B0E8F00F80F30988BFF36F8F70476E
:101010001C10002008B54FF0500383F31188BFF374
:101020006F8FBFF34F8F00F04FFC28B14FF0E023DC
:101030004FF08052C3F8042D002383F3118808BDBC
:101040004FF0E022002313619361054B1B680549B3
:10105000A1FB03139B09013B5361072313617047F5
:1010600040000020D34D621010B582B02A4B1A7890
:10107000D2B20192FF221A701B78DBB28DF80330D6
:101080009DF8033003F05003244A1370244B0722C9
:101090001A6009E0224A1368013B13609DF803308F
:1010A0005B00DBB28DF803309DF8033013F0800F46
:1010B000F0D11B4B1B68032B08D04FF0500383F378
:1010C0001188BFF36F8FBFF34F8FFEE71B02144AE7
:1010D000136003F4E0631360019BDBB20E4A1370EC
:1010E0004FF0E023D3F8202D42F47002C3F8202DF6
:1010F000D3F8202D42F07042C3F8202DFFF7A0FF57
:101100000024084B1C60FFF7EFFE00F00BFDFFF71B
:10111000CBFE204602B010BD00E400E0D00200206B
:10112000CC0200204C000020124A12F0070F1ED003
:10113000D11D21F00701C1F5406313440A460E4852
:101140000260002141601344083B23F007030B4871
:10115000036059601960991A51601360084B196057
:10116000084B1960084B4FF000421A6070474FF46B
:101170004063E4E7F4020020EC020020E8020020D3
:10118000E0020020E4020020D4020020154B1A46A1
:101190001B688342FBD3516802EB010C844509D0E4
:1011A000416800EB010C634509D00360904218D000
:1011B000106070474068014451601046F0E710B479
:1011C000094C2468A3420AD05B6819444160136843
:1011D0001B680360904200D0106010BC7047046030
:1011E000F8E77047EC020020E802002038B504461A
:1011F00000F062FB384B1B68B3B1384B1B681C42D4
:1012000050D1002C50D004F1080214F0070F02D086
:1012100022F007020832002A55D0314B1B68934256
:1012200053D330490C6804E0FFF77EFFE5E7214621
:101230001C466368934202D22368002BF7D1264BE9
:101240001B68A34243D00D68083523680B606368B0
:101250009B1A102B10D9A01810F0070F08D04FF0D0
:10126000500383F31188BFF36F8FBFF34F8FFEE7F7
:1012700043606260FFF78AFF626819490B689B1A36
:101280000B60194909688B4201D217490B60134B57
:101290001B681343636000232360144A13680133FF
:1012A000136002E0002500E0002500F099FB15F036
:1012B000070F0ED04FF0500383F31188BFF36F8FE9
:1012C000BFF34F8FFEE70025EFE70025EDE7002590
:1012D000EBE7284638BD00BFE8020020D40200201A
:1012E000E4020020EC020020E0020020DC020020EA
:1012F000002834D038B50446A0F1080550F8043C65
:10130000174A1268134208D14FF0500383F3118833
:10131000BFF36F8FBFF34F8FFEE750F8081C41B14A
:101320004FF0500383F31188BFF36F8FBFF34F8FDC
:10133000FEE723EA020340F8043C00F0BDFA54F84B
:10134000041C084A13680B4413602846FFF71EFF6D
:10135000054A13680133136000F042FB38BD704743
:10136000D4020020E4020020D8020020084B1B68B1
:101370001B6823B9074B4FF0FF321A607047044BCC
:101380001B68DB68DB685A68024B1A60704700BF55
:10139000640F0020FC0E00202DE9F0470746984618
:1013A000089DDDF824900A9C266B02F18042013AE8
:1013B00006EB820626F00706C1B308464FF0000C84
:1013C000BCF10F0F09D810F80C2004EB0C0383F8C4
:1013D000342012B10CF1010CF2E7002384F8433001
:1013E000062D00D90625E56265644FF0000AC4F8B1
:1013F00048A0201DFFF71EFD04F11800FFF71AFD9D
:101400002461C5F10705A5616462C4F84CA084F8A5
:1014100050A0424639463046FFF776FD2060B9F1CC
:10142000000F01D0C9F80040BDE8F087002384F820
:101430003430D5E738B5002407E004EB840293008C
:101440000E481844FFF7EBFC0134062CF5D90C4D7F
:101450002846FFF7E4FC0B4C2046FFF7E0FC0A4867
:10146000FFF7DDFC0948FFF7DAFC0948FFF7D7FC76
:10147000084B1D60084B1C6038BD00BF900F00205A
:101480007C0F0020680F00204C0F0020380F002038
:10149000200F0020640F0020600F002010B50446CC
:1014A000FFF758FD214A136801331360204B1B6876
:1014B0005BB1204B1B686BB91D4B1B68DA6AE36A92
:1014C0009A4207D81A4B1C6004E0194B1C60136841
:1014D000012B28D0184A136801331360E06A0123F6
:1014E0008340164A11680B43136000EB8000211DF6
:1014F000134B03EB8000FFF7A0FCFFF74DFD0D4BF6
:101500001B687BB10A4B1B68DA6AE36A9A4209D20C
:101510004FF0E0234FF08052C3F8042DBFF34F8FFC
:10152000BFF36F8F10BDFFF785FFD3E71C0F0020BF
:101530001C100020100F0020000F0020140F0020AE
:10154000900F002010B5044690F8513063B1012B84
:1015500011D0022B0ED04FF0500383F31188BFF34C
:101560006F8FBFF34F8FFEE7006BFFF7C1FE204682
:10157000FFF7BEFE10BDFFF7BBFEFBE70F4B1B687E
:10158000D3B110B5FFF7E6FC0D4BDB68DC68201D1E
:10159000FFF777FC0B4A1368013B1360074A136897
:1015A000013B1360FFF7F8FC2046FFF7CBFF034B2E
:1015B0001B68002BE6D110BD704700BF340F002020
:1015C000380F00201C0F002008B5FFF7D7FF074B8E
:1015D0001B68012BF9D94FF0E0234FF08052C3F87C
:1015E000042DBFF34F8FBFF36F8FEEE7900F0020F6
:1015F00070B504460D461D4B1E681D4B186804301F
:10160000FFF73FFC48B91A4B1B68DB6A01229A407E
:1016100018490B6823EA02030B60B4F1FF3F0DD0B9
:101620003444134B1B685C60A64210D9124B1868F7
:101630000F4B19680431FFF70BFC70BD002DEFD084
:101640000B4B196804310D48FFF7F7FBF5E70C4B1E
:101650001868074B19680431FFF7FAFB094B1B6840
:10166000A342EAD9074B1C60E7E700BF180F002030
:101670001C100020140F0020600F0020200F0020FD
:10168000640F0020FC0E002030B587B00B9C7CB1AD
:101690000C9DB5B154250495049D542D1AD04FF0DE
:1016A000500383F31188BFF36F8FBFF34F8FFEE7B3
:1016B0004FF0500383F31188BFF36F8FBFF34F8F49
:1016C000FEE74FF0500383F31188BFF36F8FBFF332
:1016D0004F8FFEE7049D0C9D2C63022485F851403A
:1016E00000240394029505AC01940A9C0094FFF732
:1016F00053FE0C98FFF7D2FE059807B030BD2DE9D8
:10170000F04385B00746884614461E469000FFF712
:101710006DFD08B381465420FFF768FD0546A8B16A
:10172000C0F83090002380F85130039302900D9B55
:1017300001930C9B00933346224641463846FFF7FF
:101740002BFE2846FFF7AAFE012007E04846FFF7D8
:10175000CFFD4FF0FF3001E04FF0FF3005B0BDE8A6
:10176000F083000038B50446FFF7F4FB002C34D0BA
:10177000251D2846FFF785FB70B9E26A02EB82035C
:101780009B002749CB583BB9012303FA02F22549B4
:101790000B6823EA02030B60A36A1BB104F1180073
:1017A000FFF76FFB204A1368013313601F4B1B6860
:1017B000A34215D01E4A1368013B13602046FFF771
:1017C000C1FEFFF7D3FDFFF7E7FB1A4B1B681BB108
:1017D000164B1B68A3420CD038BD144B1C68C7E7DE
:1017E00029461548FFF729FB144A13680133136093
:1017F000E9E7134B1B6843B14FF0500383F31188A3
:10180000BFF36F8FBFF34F8FFEE74FF0E0234FF032
:101810008052C3F8042DBFF34F8FBFF36F8FDBE708
:10182000900F0020140F0020000F00201C1000203B
:101830001C0F0020100F0020380F0020340F002054
:10184000F40E002010B588B000240594069407AA71
:1018500006A905A8FEF7B0FC059B0293069B019321
:1018600000942346079A0E490E48FFF70DFF0E4BD2
:10187000186090B14FF0500383F31188BFF36F8F5E
:10188000BFF34F8F094B4FF0FF321A60084B012214
:101890001A60084B1C60FFF7E7FB08B010BD00BFE3
:1018A00038220008C9150008F80E0020FC0E0020A0
:1018B000100F0020180F0020024A13680133136034
:1018C000704700BFF40E0020F8B53A4B1B68002BA0
:1018D00069D1394B1D6801351D60C5B9374B1B688F
:1018E0001B6843B14FF0500383F31188BFF36F8F30
:1018F000BFF34F8FFEE7314A1168314B1868106013
:101900001960304A136801331360FFF72FFD2E4B27
:101910001B68AB423DD900272C4B1B68DB6A03EBED
:1019200083039A002A4B9B58012B00D90127294B8E
:101930001B68002B3CD001273AE001271F4B1B6896
:101940001B6843B31D4B1B68DB68DC6863689D4202
:1019500026D3261D3046FFF794FAA36A1BB104F183
:101960001800FFF78EFAE36A01229A401A490868C4
:1019700002430A6003EB83039A0031461448104483
:10198000FFF75BFAE26A114B1B68DB6A9A42D4D21A
:10199000D4E70027D2E70C4B4FF0FF321A60BBE7C9
:1019A000094A1360B8E70D4A136801331360002732
:1019B0003846F8BDF40E0020180F0020640F0020F8
:1019C000600F0020040F0020FC0E00201C100020DF
:1019D000900F0020080F0020140F00200C0F002093
:1019E00038B5354B1B6843B94FF0500383F311886A
:1019F000BFF36F8FBFF34F8FFEE7FFF7ABFA2E4BAE
:101A00001A68013A1A601B68002B4FD12B4B1B68D8
:101A10000BB900244BE00024294B1B681BB3284B57
:101A2000DB68DC6804F11800FFF72BFA251D284657
:101A3000FFF727FAE06A01238340224A11680B432B
:101A4000136000EB800029461F4B03EB8000FFF77B
:101A5000F4F9E26A1D4B1B68DB6A9A42DCD31C4B2B
:101A600001221A60D8E70CB1FFF780FC194B1C6803
:101A700084B9174B1C68D4B14FF0E0234FF080526B
:101A8000C3F8042DBFF34F8FBFF36F8F01240EE017
:101A9000013C07D0FFF718FF0028F9D00C4B0122BA
:101AA0001A60F5E70B4B00221A60E2E70024FFF70B
:101AB00073FA204638BD00BFF40E00201C0F002032
:101AC0004C0F0020140F0020900F00201C1000204D
:101AD000080F00200C0F002010B5A8B10446104BD1
:101AE0001B6843B14FF0500383F31188BFF36F8F2E
:101AF000BFF34F8FFEE7FFF7DFFE00212046FFF721
:101B000077FDFFF76DFF48B94FF0E0234FF08052AB
:101B1000C3F8042DBFF34F8FBFF36F8F10BD00BF0D
:101B2000F40E0020204B1B681BB1204B01221A60D1
:101B300070471E4B00221A601D4B1B68B3FA83F3DB
:101B4000DBB2C3F11F0303EB83018A0019498A58F2
:101B500042B94FF0500383F31188BFF36F8FBFF387
:101B60004F8FFEE7134803EB83018A00024451685C
:101B70004968516003EB830C4FEA8C02083202443F
:101B8000914209D003EB83039A000A4B13445B682C
:101B9000DA68094B1A607047486862469100054A46
:101BA0000A445060EEE700BFF40E0020080F00204A
:101BB000140F0020900F00201C100020054B1B6804
:101BC00033B1054B1B680BB10020704702207047F2
:101BD00001207047100F0020F40E002008B530B926
:101BE00000224FF480710548FEF7D0FD08BD0122A8
:101BF0004FF480710148FEF7C9FDF7E7000C014082
:101C000008B530B900224FF400710548FEF7BEFD5B
:101C100008BD01224FF400710148FEF7B7FDF7E758
:101C2000000C014010B586B0002204E00133B3F58A
:101C30007A7FFBD30132B2F57A7F01D20023F6E737
:101C4000144B9A6942F008029A619B6903F00803F9
:101C50000193019B002302930393049305934FF494
:101C60008073029311230393032305930A4C02A963
:101C70002046FEF77DFC4FF40073029302A9204634
:101C8000FEF776FC0120FFF7A9FF0120FFF7B8FF60
:101C900006B010BD00100240000C014008B5012044
:101CA000FFF7AEFF0120FFF799FF0020FFF7A8FF25
:101CB0000020FFF793FF08BD08B50020FFF7A0FF45
:101CC0000120FFF78BFF0120FFF79AFF08BD38B511
:101CD000054600240FE0802323411D4214BF01204C
:101CE0000020FFF78DFF0120FFF778FF0020FFF7AE
:101CF00075FF0134E4B2072CEDD90120FFF76EFF28
:101D00000020FFF76BFF38BD10B50446FFF7C6FF94
:101D10007820FFF7DCFF0020FFF7D9FF2046FFF710
:101D2000D6FFFFF7C9FF10BD70B506460D46FFF799
:101D3000B5FF7820FFF7CBFF4020FFF7C8FF002456
:101D400004E0305DFFF7C3FF0134E4B2AC42F8D3E6
:101D5000FFF7B2FF70BD10B50C4640F0B000FFF7C2
:101D6000D3FF200940F01000FFF7CEFF04F00F0072
:101D7000FFF7CAFF10BD0246012002E002FB00F09F
:101D800019464B1E0029F9D17047000010B50024F8
:101D90000BE000212046FFF7DEFF8021044800EB26
:101DA000C410FFF7C1FF0134E4B2072CF1D910BD14
:101DB0002010002000200BE0084A02EBC012002196
:101DC000D1540133DBB213F0800FF5D00130C0B233
:101DD000072801D80023F6E7704700BF2010002035
:101DE00008B5FFF71FFFAE20FFF78EFFD520FFF7E6
:101DF0008BFF8020FFF788FFA820FFF785FF3F209B
:101E0000FFF782FFD320FFF77FFF0020FFF77CFF63
:101E10004020FFF779FFA120FFF776FFC820FFF7EA
:101E200073FFDA20FFF770FF1220FFF76DFF8120AC
:101E3000FFF76AFFCF20FFF767FFD920FFF764FFA6
:101E4000F120FFF761FFDB20FFF75EFF3020FFF797
:101E50005BFFA420FFF758FFA620FFF755FF8D205A
:101E6000FFF752FF1420FFF74FFFAF20FFF74CFFA3
:101E7000FFF7A0FFFFF78AFF08BD00002DE9F04142
:101E800014461D460B4634E046F3CF061C4F07EBC5
:101E9000C61717F80280D3F1000E03F007060EF004
:101EA000070E58BFCEF100064FF0010E0EFA06FEE7
:101EB0006FEA0E0E4FFA8EFE08EA0E0807F802804F
:101EC0000CF1010C0FFA8CFC624600EB040EF44599
:101ED0000DDA1FFA8CFCBCF17F0FF1D8002BEFDB81
:101EE0003F2BEDDC1E46002BCEDADE1DCCE70133A6
:101EF0001BB24A19934201DA8446E5E7BDE8F08156
:101F0000201000202DE9F04F83B006460C46154600
:101F10009A460C9FFFF7B2FF4FF0000B4DE0E21D19
:101F20000DE0013A083116E00133DBB2AB423ED29C
:101F30009C46F0187F28F7D82246002CEFDBD21001
:101F4000D4F1000E04F007010EF0070E58BFCEF1D9
:101F50000001002CE5DB4244072A0FD8DFF87CE0C3
:101F60000EEBC21E1EF8009008FB05CB17F80BB055
:101F70000BFA01FB49EA0B090EF8009002F1010E81
:101F8000BEF1070FD0D87246DFF850E00EEBC21258
:101F900012F800E008FB05CC17F80CC0C1F10801ED
:101FA0004CFA01F14EEA010E02F800E0BCE7DDF860
:101FB00004B00BF1010B5FFA8BFBBAF1010307D4FC
:101FC000D846BBEBE30F05DC0023CDF804B0ADE74A
:101FD0000733F5E703B0BDE8F08F00BF2010002005
:101FE00000B583B0082B04D0062B0CD003B05DF8ED
:101FF00004FB203A0A4B03EB021300931023082240
:10200000FFF780FFF2E7203A02EB4202054B03EBB9
:102010004203009308230622FFF774FFE6E700BFA0
:102020007C240008402200082DE9F04782468946BA
:1020300090461E469DF8207000241AE007FB04A578
:10204000ADB2311B01390A20FFF795FEB8FBF0F065
:102050000A4AA2FB0032D20802EB8202A0EB420243
:1020600030323B46D2B2494628B2FFF7B9FF0134BD
:10207000E4B2B442E2D3BDE8F08700BFCDCCCCCC13
:1020800003460244934200D1704703F8011BF9E76D
:1020900070B500260C4D0D4C641BA410A64209D14E
:1020A00000F080F800260A4D0A4C641BA410A642DA
:1020B00005D170BD55F8043B98470136EEE755F859
:1020C000043B98470136F2E76C2A00086C2A0008A6
:1020D0006C2A0008742A000870477047024B13B13D
:1020E000024800F005B8704700000000FD2000081D
:1020F000002301461A46184600F014B838B5074DBB
:10210000074C641BA4101CB9BDE8384000F050B85F
:10211000013C55F824309847F5E700BF742A0008C1
:10212000782A00082DE9F047DFF86CA00646DAF8B7
:10213000000098460F469146FFF7CEFF174B1C68EC
:102140000CB9174C1C606568DAF800001F2D05DD1E
:10215000FFF7C3FF4FF0FF30BDE8F0879EB10122CB
:1021600004EB8501C1F88890D4F88831AA40134364
:10217000C4F88831022EC1F8088102BFD4F88C312E
:102180001343C4F88C316B1C0235636044F825702E
:10219000FFF7A3FF0020DFE75000002024140020F9
:1021A00028140020F8B500BFF8BC08BC9E46704754
:0C21B000F8B500BFF8BC08BC9E467047A4
:1021BC0008220008AD01000800000000000000002B
:1021CC0080000000000000000000000044697370F3
:1021DC006C6179205461736B310000004469737039
:1021EC006C6179205461736B320000004469737028
:1021FC006C6179205461736B330000006465666117
:10220C00756C745461736B000000000000000000DA
:10221C000102030406070809010200000203040579
:10222C00060708090A0B0C0D0E0F101049444C45FB
:10223C00000000000000000000000000002F000063
:10224C0000000700070000147F147F1400242A7F6D
:10225C002A120023130864620036495522500000EC
:10226C000007000000001C224100000041221C005D
:10227C000014083E08140008083E0808000000A0DE
:10228C0060000008080808080000606000000020DA
:10229C0010080402003E5149453E0000427F4000B8
:1022AC00004261514946002141454B31001814123E
:1022BC007F10002745454539003C4A49493000010B
:1022CC007109050300364949493600064949291E5A
:1022DC0000003636000000005636000000081422BC
:1022EC0041000014141414140000412214080002BC
:1022FC0001510906003E4955592E007C1211127CE1
:10230C00007F49494936003E41414122007F41410D
:10231C00221C007F49494941007F09090901003EFF
:10232C004149497A007F0808087F0000417F41003D
:10233C00002040413F01007F08142241007F4040B3
:10234C004040007F020C027F007F0408107F003E9B
:10235C004141413E007F09090906003E4151215E81
:10236C00007F091929460046494949310001017F7E
:10237C000101003F4040403F001F2040201F003F14
:10238C004038403F006314081463000708700807C6
:10239C0000615149454300007F414100000204089F
:1023AC001020000041417F000004020102040040A3
:1023BC004040404000000102040000205454547876
:1023CC00007F484444380038444444200038444496
:1023DC00487F00385454541800087E090102001834
:1023EC00A4A4A47C007F080404780000447D400071
:1023FC00004080847D00007F102844000000417F55
:10240C004000007C04180478007C08040478003830
:10241C004444443800FC242424180018242418FCB8
:10242C00007C0804040800485454542000043F4421
:10243C004020003C4040207C001C2040201C003CE4
:10244C004030403C004428102844001CA0A0A07C34
:10245C00004464544C440000087F41000000007F9D
:10246C0000000000417F080000080408100800006C
:10247C000000000000000000000000000000000050
:10248C00000000F8000000000000003330000000E5
:10249C0000160E00160E00000000000000000000E8
:1024AC0040C07840C0784000043F04043F0404005E
:1024BC00007088FC08300000001820FF211E00006E
:1024CC00F008F000E018000000211C031E211E0083
:1024DC0000F00888700000001E2123241927211009
:1024EC00000000160E0000000000000000000000BC
:1024FC00000000E018040200000000071820400053
:10250C0000020418E0000000004020180700000042
:10251C00404080F0804040000202010F01020200A6
:10252C00000000F0000000000101011F010101008A
:10253C00000000000000000000B07000000000006F
:10254C000000000000000000000101010101010178
:10255C00000000000000000000303000000000000F
:10256C0000000000806018040060180601000000E4
:10257C0000E010080810E000000F102020100F00E1
:10258C00001010F8000000000020203F2020000068
:10259C0000700808088870000030282422213000C0
:1025AC0000300888884830000018202020110E00C8
:1025BC000000C02010F8000000070424243F240071
:1025CC0000F80888880808000019212020110E0046
:1025DC0000E0108888180000000F112020110E0058
:1025EC0000380808C83808000000003F0000000050
:1025FC000070880808887000001C222121221C0011
:10260C0000E010080810E0000000312222110F0039
:10261C00000000C0C00000000000003030000000CE
:10262C00000000C0C0000000000080B0700000007E
:10263C000000804020100800000102040810200057
:10264C0040404040404040000404040404040400A2
:10265C000008102040800000002010080402010037
:10266C00007048080808F000000000303601000037
:10267C00C030C828E810E0000718272423140B00EA
:10268C000000C038E0000000203C23020227382064
:10269C0008F8888888700000203F202020110E0048
:1026AC00C03008080808380007182020201008003F
:1026BC0008F808080810E000203F202020100F0028
:1026CC0008F88888E8081000203F202023201800F4
:1026DC0008F88888E8081000203F2000030000005C
:1026EC00C03008080838000007182020221E0200FD
:1026FC0008F808000008F808203F210101213F20BC
:10270C00000808F8080800000020203F20200000E6
:10271C0000000808F8080800C08080807F000000D6
:10272C0008F888C028180800203F2001263820000F
:10273C0008F8080000000000203F20202020300076
:10274C0008F8F800F8F80800203F003F003F200090
:10275C0008F830C00008F808203F200007183F0098
:10276C00E01008080810E0000F10202020100F00C7
:10277C0008F808080808F000203F210101010000BA
:10278C00E01008080810E0000F18242438504F00FF
:10279C0008F8888888887000203F2000030C3020BF
:1027AC0000708808080838000038202121221C00FD
:1027BC00180808F8080818000000203F2000000046
:1027CC0008F808000008F808001F202020201F002F
:1027DC000878880000C83808000007380E0100008F
:1027EC00F80800F80008F800033C0700073C030059
:1027FC00081868808068180820302C03032C3020BF
:10280C000838C800C83808000000203F200000002D
:10281C0010080808C8380800203826212020180085
:10282C00000000FE020202000000007F4040400059
:10283C00000C30C000000000000000010638C00091
:10284C0000020202FE000000004040407F00000039
:10285C0000201008040810200000000000000000F8
:10286C00000000000000000080808080808080805C
:10287C00000204080000000000000000000000003E
:10288C0000008080808000000019242222223F203A
:10289C0008F8008080000000003F112020110E007D
:1028AC000000008080800000000E1120202011000C
:1028BC00000000808088F800000E112020103F20BE
:1028CC000000808080800000001F22222222130042
:1028DC00008080F0888888180020203F202000008D
:1028EC000000808080808000006B94949493600042
:1028FC0008F8008080800000203F210000203F204D
:10290C0000809898000000000020203F202000004C
:10291C00000000809898000000C08080807F00003C
:10292C0008F8000080808000203F24022D30200019
:10293C00000808F8000000000020203F20200000C4
:10294C008080808080808000203F20003F20003FDE
:10295C00008080008080000000203F2100203F206C
:10296C000000808080800000001F202020201F009D
:10297C00808000808000000080FFA12020110E00CC
:10298C000000008080808000000E112020A0FF80BD
:10299C00808080008080800020203F21200001006A
:1029AC0000008080808080000033242424241900BF
:1029BC00008080E0808000000000001F20200000CC
:1029CC008080000000808000001F202020103F200D
:1029DC00808080000080808000010E30080601009D
:1029EC0080800080008080800F300C030C300F0042
:1029FC0000808000808080000020312E0E3120006D
:102A0C00808080000080808080818E70180601009C
:102A1C0000808080808080000021302C22213000BA
:102A2C0000000000807C020200000000003F4040DB
:102A3C0000000000FF00000000000000FF0000008C
:102A4C000002027C800000000040403F00000000BB
:102A5C000080404080000080000000000001010068
:082A6C00DD200008350100081F
:042A74001101000844
:102A7800010000000020666666666600000000002F
:102A8800000000000000000000106767676767002B
:102A98000000000000000000000000000000686561
:102AA8006C6C6F00000000000000000000000000D7
:102AB80000127A000100000010000000AAAAAAAAC9
:042AC80020140020B6
:04000005080003BD2F
:00000001FF
