:020000040800F2
:1000000000500020B5040008910400089304000883
:1000100095040008970400089904000800000000F7
:100020000000000000000000000000003110000887
:100030009B04000800000000D11000089D04000887
:10004000FD040008FD040008FD040008FD0400088C
:10005000FD040008FD040008FD040008FD0400087C
:10006000FD040008FD040008FD040008FD0400086C
:10007000FD040008FD040008FD040008FD0400085C
:10008000FD040008FD040008FD040008FD0400084C
:10009000FD040008FD040008FD040008FD0400083C
:1000A000FD040008FD040008FD040008FD0400082C
:1000B000FD040008FD040008FD040008FD0400081C
:1000C000FD040008FD040008FD040008FD0400080C
:1000D000FD040008FD040008FD040008FD040008FC
:1000E000FD040008FD040008FD04000800000000F5
:1000F0000000000000000000000000000000000000
:0C01000000000000000000005FF808F1A3
:1001100010B5054C237833B9044B13B10448AFF341
:1001200000800123237010BD140000200000000097
:10013000D82D000808B5034B1BB103490348AFF3A2
:10014000008008BD0000000018000020D82D000825
:1001500010F8012B11F8013B012A28BF9A42F7D071
:10016000D01A704708B5012000F0CEFEFBE7000072
:1001700008B5012001F066FB014B186008BD00BF07
:100180008802002008B54FF0FF31024B186801F0DB
:1001900013FC08BD8802002008B500231A46194642
:1001A0000248006801F07EFA08BD00BF8802002006
:1001B00000B585B00023039316E0FFF7E3FF0823A3
:1001C000154A0021084602F0ADFC082300930423E1
:1001D000039A0021282002F079FCFFF7DDFF02F0EE
:1001E00027FB0A2002F002F8039B0133039300234C
:1001F000642203A90948006801F054FA0128DCD000
:10020000FFF7C0FF0823064A0021084602F08AFCD7
:10021000FFF7C2FFE3E700BF0C2E000884020020B6
:10022000142E000800B585B017E0FFF7ABFF0823D8
:10023000144A1021002002F075FC082300930423C7
:10024000039A1021282002F041FCFFF7A5FF02F0DD
:10025000EFFA4FF4FA6001F0C9FF4FF4FA7203A904
:10026000094B186801F0F9FA0128DED0FFF78AFF80
:100270000823064A1021002002F054FCFFF78CFFEF
:10028000E5E700BF202E000884020020282E000889
:1002900010B582B000220421052001F0DFF9124BD5
:1002A0001860A0B100240194022300932346C822C1
:1002B0000E490F4801F01DFE0194012300932346CF
:1002C000C8220C490C4801F014FE02B010BD02F027
:1002D000AFFA0823094A0021084602F023FC02F085
:1002E000A7FAFFF759FFFEE784020020402E00081E
:1002F000B10100084C2E000825020008342E000829
:10030000034B0360034B0B6080231360704700BFF7
:10031000300200203000002010B588B002F0B2FAA0
:10032000FFF726FFFFF7B4FF0DF1040C074C0FCCCD
:10033000ACE80F0094E807008CE80700002101A852
:1003400000F0AFFD024B186008B010BDF02D0008A2
:100350008C02002030B589B00024049405940694E2
:100360000794184B9A6942F010029A619A6902F058
:1003700010020192019A9A6942F020029A619A69E8
:1003800002F020020292029A9A6942F004029A61F3
:100390009B6903F004030393039B0B4D22464FF428
:1003A0000051284600F06EFA4FF4005304931123D5
:1003B000059306940223079304A9284600F054F9F4
:1003C00009B030BD001002400010014072B6FEE7D7
:1003D00000B591B02822002106A802F05DFC0023A0
:1003E000019302930393049305930223069301233D
:1003F0000A9310230B9306A800F060FA68B90F2344
:1004000001930021029103910491059101A800F04C
:1004100087FC20B911B05DF804FBFFF7D7FFFFF7A9
:10042000D5FF08B500F092F8FFF7D2FFFFF792FF73
:10043000FFF772FF00F030FDFEE7000000B583B06B
:10044000114B9A6942F001029A619A6902F0010225
:100450000092009ADA6942F08052DA61DB6903F0B7
:1004600080530193019B00220F216FF0010000F0E7
:10047000D7F8064A536823F0E06343F000735360F3
:1004800003B05DF804FB00BF001002400000014013
:10049000FEE7FEE7FEE7FEE7FEE7704708B500F07F
:1004A00067F801F0C7FF012800D108BD00F032FE57
:1004B000FBE77047FFF7FDFF0B480C490C4A002390
:1004C00002E0D458C4500433C4188C42F9D3094A0A
:1004D000094C002301E013600432A242FBD302F076
:1004E000E3FBFFF79EFF7047000000201400002090
:1004F000F83700081400002080150020FEE70000F7
:1005000010B504460E4B1A784FF47A73B3FBF2F32E
:100510000C4A1068B0FBF3F000F092F868B90F2CA9
:1005200001D901200AE0002221464FF0FF3000F0FF
:1005300077F8054B1C60002000E0012010BD00BFD3
:1005400004000020000000200800002008B5074A31
:10055000136843F010031360032000F04FF80F20DE
:10056000FFF7CEFFFFF76AFF002008BD0020024022
:10057000034A1168034B1B780B441360704700BF9C
:100580009002002004000020014B1868704700BF53
:1005900090020020002808DB0901C9B200F1604088
:1005A00000F5614080F80013704700F00F0009016A
:1005B000C9B2014B1954704714ED00E000B500F0CA
:1005C0000700C0F1070CBCF1040F28BF4FF0040C6A
:1005D000031D062B0FD9C31E4FF0FF3E0EFA0CF081
:1005E00021EA000199400EFA03FE22EA0E0241EAD6
:1005F00002005DF804FB0023EEE70000074AD36821
:1006000023F4E0631B041B0C000200F4E0600343CE
:1006100043F0BF6343F40033D360704700ED00E064
:1006200010B50446054BD868C0F30220FFF7C6FF9B
:1006300001462046FFF7AEFF10BD00BF00ED00E011
:100640000138B0F1807F0BD24FF0E0235861054AAA
:10065000F02182F823100020986107221A61704768
:100660000120704700ED00E070B582B00024A44680
:10067000A2E07E4DAB4210D007D97D4DAB420CD0ED
:1006800005F58035AB4208D013E0A5F58015AB42E7
:1006900003D005F57025AB4207D18B68002B55D0F0
:1006A000012B4ED04261082403E0A5F58015AB4232
:1006B000F3D0BEF1FF0F4BD806464FEA8C023368E9
:1006C0000F25954023EA050304FA02F21343336031
:1006D0004B6813F0805F6DD0664B9A6942F001025F
:1006E0009A619B6903F001030193019B4FEA9C020D
:1006F000951C614B53F825600CF00305AD000F23EA
:10070000AB4026EA03065D4B984228D003F5806390
:10071000984200F08D8003F58063984200F08A8053
:1007200003F58063984218D0042319E0CC68C0E731
:10073000CC680434BDE7CC680834BAE7CC680C3424
:10074000B7E702610824B4E70024B2E70424B0E765
:10075000061DACF108029200B1E7032300E000237C
:10076000AB4033430232444D45F822304B6813F41A
:10077000801F61D0424A936843EA0E0393604B683E
:1007800013F4001F5ED03E4AD36843EA0E03D360E1
:100790004B6813F4003F5BD0394A536843EA0E03B9
:1007A00053604B6813F4803F58D0354A136843EACE
:1007B0000E0313600CF1010C0B6833FA0CF253D0EA
:1007C000012202FA0CF203EA020E32EA0303F1D12B
:1007D0004B68122B3FF64DAF122B3FF66AAF01A5C7
:1007E00055F823F09B0600082D070008370700087E
:1007F00049070008B3060008B3060008B30600085E
:10080000B3060008B3060008B3060008B3060008E4
:10081000B3060008B3060008B3060008B3060008D4
:10082000B3060008B3060008310700083D070008BA
:10083000012395E7022393E7114A936823EA0E0305
:1008400093609CE70E4AD36823EA0E03D3609FE7C8
:100850000B4A536823EA0E035360A2E7084A136861
:1008600023EA0E031360A5E702B070BD000022105A
:10087000000031100010024000000140000801405B
:10088000000401400AB10161704709040161704729
:1008900082B0084B1B68084AA2FB03235B0A00FBDB
:1008A00003F3019300BF019B5A1E0192002BF9D163
:1008B00002B0704700000020D34D6210002800F005
:1008C000F18170B582B00446036813F0010F2CD09B
:1008D000994B5B6803F00C03042B1DD0964B5B68AF
:1008E00003F00C03082B12D06368B3F5803F41D0AE
:1008F000002B55D103F1804303F504331A6822F429
:1009000080321A601A6822F480221A6037E08A4B1B
:100910005B6813F4803FE7D0874B1B6813F4003FFC
:1009200003D06368002B00F0BF81236813F0020F2F
:1009300075D0814B5B6813F00C0F5FD07E4B5B680A
:1009400003F00C03082B54D02369002B00F08A809D
:100950007A4B01221A60FFF717FE0546764B1B689B
:1009600013F0020F75D1FFF70FFE401B0228F5D9D7
:1009700003209EE1704A136843F480331360636878
:1009800043B3FFF701FE05466B4B1B6813F4003FB2
:10099000CBD1FFF7F9FD401B6428F5D9032088E18E
:1009A000B3F5A02F09D0644B1A6822F480321A6084
:1009B0001A6822F480221A60E1E703F18043A3F56C
:1009C0003C331A6842F480221A601A6842F480327A
:1009D0001A60D4E7FFF7D8FD0546574B1B6813F4A0
:1009E000003FA2D0FFF7D0FD401B6428F5D90320BB
:1009F0005FE1514B5B6813F4803FA5D14E4B1B6800
:100A000013F0020F03D02369012B40F04F814A4AB3
:100A1000136823F0F803616943EAC1031360236894
:100A200013F0080F33D0A369002B5CD0434B012295
:100A3000C3F88024FFF7A8FD05463F4B5B6A13F01F
:100A4000020F21D1FFF7A0FD401B0228F5D903209A
:100A50002FE1394A136823F0F803616943EAC103BF
:100A60001360DCE7354B00221A60FFF78DFD054669
:100A7000314B1B6813F0020FD1D0FFF785FD401BEF
:100A80000228F5D9032014E10120FFF701FF2368B4
:100A900013F0040F00F09680274BDB6913F0805FA2
:100AA00034D1254BDA6942F08052DA61DB6903F018
:100AB00080530193019B0125214B1B6813F4807F18
:100AC00026D0E368012B3DD0002B53D103F18043A6
:100AD00003F504331A6A22F001021A621A6A22F03C
:100AE00004021A6233E0154B0022C3F88024FFF79A
:100AF0004BFD0546104B5B6A13F0020FC7D0FFF7A2
:100B000043FD401B0228F5D90320D2E00025D3E79E
:100B10000B4A136843F480731360FFF735FD0646F4
:100B2000074B1B6813F4807FCBD1FFF72DFD801B93
:100B30006428F5D90320BCE00010024000004242C6
:100B4000007000405F4A136A43F001031362E368D8
:100B500033B3FFF719FD06465A4B1B6A13F0020F19
:100B60002FD1FFF711FD801B41F288339842F3D952
:100B700003209EE0052B09D0524B1A6A22F0010295
:100B80001A621A6A22F004021A62E0E74D4B1A6AEE
:100B900042F004021A621A6A42F001021A62D6E7AF
:100BA000FFF7F2FC0646474B1B6A13F0020F08D012
:100BB000FFF7EAFC801B41F288339842F3D9032007
:100BC00077E0E5B9E369002B72D03E4A526802F043
:100BD0000C02082A56D0022B17D03B4B00221A6673
:100BE000FFF7D2FC0446374B1B6813F0007F47D059
:100BF000FFF7CAFC001B0228F5D9032059E0314A4F
:100C0000D36923F08053D361DCE72F4B00221A66AF
:100C1000FFF7BAFC05462B4B1B6813F0007F06D08C
:100C2000FFF7B2FC401B0228F5D9032041E0236AFC
:100C3000B3F5803F1AD023494B6823F47413226A1A
:100C4000606A024313434B601F4B01221A66FFF791
:100C50009BFC04461B4B1B6813F0007F0ED1FFF773
:100C600093FC001B0228F5D9032022E0154A5368A3
:100C700023F40033A1680B435360DCE7002018E045
:100C8000002016E0012B16D00E4B5B6803F4803178
:100C9000226A914211D103F47013626A93420ED119
:100CA000002006E001207047012002E0012000E062
:100CB000002002B070BD0120FBE70120F9E7012010
:100CC000F7E700BF00100240000042420F4B5B6894
:100CD00003F00C02082A01D00D487047C3F3834289
:100CE0000C49885C13F4803F0BD0084B5B68C3F35E
:100CF0004043094AD35C064A02FB00F0B0FBF3F024
:100D00007047064B03FB00F0704700BF0010024025
:100D100000127A00782E0008742E000800093D00A9
:100D2000002800F0A08070B50D460446524B1B68A9
:100D300003F007038B420BD24F4A136823F00703DB
:100D40000B431360136803F007038B4240F08D8060
:100D5000236813F0020F17D013F0040F04D0474A92
:100D6000536843F4E0635360236813F0080F04D022
:100D7000424A536843F460535360404A536823F037
:100D8000F003A1680B435360236813F0010F31D0C7
:100D90006368012B20D0022B25D0384A126812F04C
:100DA000020F64D035494A6822F0030213434B60B6
:100DB000FFF7EAFB0646314B5B6803F00C03626801
:100DC000B3EB820F16D0FFF7DFFB801B41F28833B5
:100DD0009842F0D9032045E0284A126812F4003FF7
:100DE000E0D101203EE0254A126812F0007FD9D1FF
:100DF000012037E0204B1B6803F00703AB420AD900
:100E00001D4A136823F007032B431360136803F094
:100E10000703AB422DD1236813F0040F06D0174A05
:100E2000536823F4E063E1680B435360236813F0D5
:100E3000080F07D0114A536823F46053216943EA2D
:100E4000C1035360FFF742FF0C4B5B68C3F303130E
:100E50000B4AD35CD8400B4B18600B4B1868FFF75C
:100E60004FFB002070BD012070470120FAE70120F0
:100E7000F8E70120F6E700BF002002400010024022
:100E8000642E00080000002008000020842801D003
:100E9000033070470020704708B501F05DF800206E
:100EA00008BD2DE9F04387B00E464469C4B1856999
:100EB000B5B14768D0F80080D0F81090B0F90800BC
:100EC000FFF7E4FF02950194009033464A464146FD
:100ED000384600F0D3FF0590059807B0BDE8F083D1
:100EE000446805680769B0F90800FFF7CFFF05AB54
:100EF000019300903346BAB22946204600F0F9FF2C
:100F00000128E9D00020E8E708B500B9012001F088
:100F10006DF9002008BD00F1080343604FF0FF3277
:100F20008260C36003610023036070470023036194
:100F3000704743684B609A688A60516099600861A5
:100F4000036801330360704730B40D68B5F1FF3FAB
:100F500011D000F108031C465B681A68AA42FAD94E
:100F600063684B6099608C6061600861036801335D
:100F7000036030BC70470469F2E703694168826826
:100F80008A60416851605A68824206D0002202613C
:100F90001A68013A1A601868704782685A60F5E763
:100FA00082B0002301930D4B1B68B3F1FF3F08D0C3
:100FB0004FF0500383F31188BFF36F8FBFF34F8F50
:100FC000FEE74FF0500383F31188BFF36F8FBFF339
:100FD0004F8F019B002BFCD002B070470C0000200B
:100FE00006480068006880F3088862B661B6BFF3FF
:100FF0004F8FBFF36F8F00DF00BF000008ED00E0F0
:101000004FF0807340F8043C21F0010140F8081CC7
:10101000034B40F80C3C40F8202C4038704700BF90
:10102000A10F000800000000000000000000000008
:10103000074B19680868B0E8F00F80F30988BFF320
:101040006F8F4FF0000080F311884EF00D0E704747
:10105000E40F00204FF0500383F31188BFF36F8F2C
:10106000BFF34F8F0B4A136801331360012B00D07D
:1010700070474FF0E023D3F8043D13F0FF0FF7D093
:101080004FF0500383F31188BFF36F8FBFF34F8F7F
:10109000FEE700BF0C000020094B1B6843B94FF06E
:1010A000500383F31188BFF36F8FBFF34F8FFEE7B9
:1010B000013B034A13600BB983F31188704700BFEB
:1010C0000C000020000000000000000000000000F4
:1010D000EFF30980BFF36F8F0D4B1A6820E9F00F13
:1010E00010602DE908404FF0500080F3118801F0A6
:1010F000A3F84FF0000080F31188BDE8084019689C
:101100000868B0E8F00F80F30988BFF36F8F70476D
:10111000E40F002008B54FF0500383F31188BFF3AC
:101120006F8FBFF34F8F00F059FF28B14FF0E023CE
:101130004FF08052C3F8042D002383F3118808BDBB
:101140004FF0E022002313619361054B1B680549B2
:10115000A1FB03139B09013B5361072313617047F4
:1011600000000020D34D621010B582B02A4B1A78CF
:10117000D2B20192FF221A701B78DBB28DF80330D5
:101180009DF8033003F05003244A1370244B0722C8
:101190001A6009E0224A1368013B13609DF803308E
:1011A0005B00DBB28DF803309DF8033013F0800F45
:1011B000F0D11B4B1B68032B08D04FF0500383F377
:1011C0001188BFF36F8FBFF34F8FFEE71B02144AE6
:1011D000136003F4E0631360019BDBB20E4A1370EB
:1011E0004FF0E023D3F8202D42F47002C3F8202DF5
:1011F000D3F8202D42F07042C3F8202DFFF7A0FF56
:101200000024084B1C60FFF7EBFE01F015F8FFF718
:10121000C7FE204602B010BD00E400E098020020A6
:10122000940200200C000020124A12F0070F1ED07A
:10123000D11D21F00701C1F5406313440A460E4851
:101240000260002141601344083B23F007030B4870
:10125000036059601960991A51601360084B196056
:10126000084B1960084B4FF000421A6070474FF46A
:101270004063E4E7BC020020B4020020B00200207A
:10128000A8020020AC0200209C020020154B1A4648
:101290001B688342FBD3516802EB010C844509D0E3
:1012A000416800EB010C634509D00360904218D0FF
:1012B000106070474068014451601046F0E710B478
:1012C000094C2468A3420AD05B6819444160136842
:1012D0001B680360904200D0106010BC704704602F
:1012E000F8E77047B4020020B002002038B5044689
:1012F00000F06CFE384B1B68B3B1384B1B681C42C6
:1013000050D1002C50D004F1080214F0070F02D085
:1013100022F007020832002A55D0314B1B68934255
:1013200053D330490C6804E0FFF77EFFE5E7214620
:101330001C466368934202D22368002BF7D1264BE8
:101340001B68A34243D00D68083523680B606368AF
:101350009B1A102B10D9A01810F0070F08D04FF0CF
:10136000500383F31188BFF36F8FBFF34F8FFEE7F6
:1013700043606260FFF78AFF626819490B689B1A35
:101380000B60194909688B4201D217490B60134B56
:101390001B681343636000232360144A13680133FE
:1013A000136002E0002500E0002500F0A3FE15F028
:1013B000070F0ED04FF0500383F31188BFF36F8FE8
:1013C000BFF34F8FFEE70025EFE70025EDE700258F
:1013D000EBE7284638BD00BFB00200209C02002089
:1013E000AC020020B4020020A8020020A4020020C9
:1013F000002834D038B50446A0F1080550F8043C64
:10140000174A1268134208D14FF0500383F3118832
:10141000BFF36F8FBFF34F8FFEE750F8081C41B149
:101420004FF0500383F31188BFF36F8FBFF34F8FDB
:10143000FEE723EA020340F8043C00F0C7FD54F83D
:10144000041C084A13680B4413602846FFF71EFF6C
:10145000054A13680133136000F04CFE38BD704735
:101460009C020020AC020020A00200200346406A3B
:1014700018B11B6B1868C0F10700704710B504461F
:10148000FFF7E8FDA26BE36B9A4204D00024FFF75C
:1014900003FE204610BD0124F9E710B50446FFF70E
:1014A000D9FDA36B23B90124FFF7F6FD204610BD3B
:1014B0000024F9E770B504461546866B026C5AB9EC
:1014C00003681BB100200136A66370BD806801F07F
:1014D00017F80023A360F6E76DB9406801F00AFC35
:1014E0006368226C13446360A268934219D3236833
:1014F00063602846E7E7C06801F0FCFBE368226C04
:1015000051429B1AE3602268934202D2A3680B44C3
:10151000E360022D01D00020D5E726B1013E002076
:10152000D1E72846CFE70020CDE708B50346026C97
:1015300062B10846D9681144D960D3F808C0614542
:1015400001D31968D960D96801F0D4FB08BD38B55A
:101550000546FFF77FFD95F8454064B201E0013C88
:1015600064B2002C0ADD6B6A43B105F1240000F07F
:10157000C7FE0028F3D000F057FFF0E7FF2385F8FF
:101580004530FFF789FDFFF765FD95F8444064B2EB
:1015900001E0013C64B2002C0ADD2B6943B105F186
:1015A000100000F0ADFE0028F3D000F03DFFF0E7A2
:1015B000FF2385F84430FFF76FFD38BD38B5E0B143
:1015C0000D460446FFF746FD2368E26B216C01FBE4
:1015D0000230A0600020A0636360013A02FB013387
:1015E000E360FF2384F8443084F84530FDB9236973
:1015F00063B9FFF751FD012038BD4FF0500383F36D
:101600001188BFF36F8FBFF34F8FFEE704F1100017
:1016100000F076FE0028ECD04FF0E0234FF080522F
:10162000C3F8042DBFF34F8FBFF36F8FE1E704F1D1
:101630001000FFF770FC04F12400FFF76CFCD8E702
:1016400010B5034602980C4631B90060C3630464C8
:101650000121FFF7B3FF10BD0260F7E740B94FF07B
:10166000500383F31188BFF36F8FBFF34F8FFEE7F3
:10167000F0B583B00D461446064601FB00F0483035
:10168000FFF734FE074650B1002380F84630009043
:10169000234600F1480229463046FFF7D1FF38467D
:1016A00003B0F0BDF0B585B0019288B10F461D467C
:1016B0000446B1B1022D20D1E36B012B1DD04FF0B8
:1016C000500383F31188BFF36F8FBFF34F8FFEE793
:1016D0004FF0500383F31188BFF36F8FBFF34F8F29
:1016E000FEE7036C002BE5D04FF0500383F3118825
:1016F000BFF36F8FBFF34F8FFEE700F09BFE0646F0
:1017000058B9019B002B48D04FF0500383F3118848
:10171000BFF36F8FBFF34F8FFEE700263DE02A46F1
:1017200039462046FFF7C6FE636A7BB948B14FF0E1
:10173000E0234FF08052C3F8042DBFF34F8FBFF367
:101740006F8FFFF7A9FC012005B0F0BD04F1240064
:1017500000F0D6FD0028F4D04FF0E0234FF0805287
:10176000C3F8042DBFF34F8FBFF36F8FE9E7FFF787
:1017700093FC0020E8E702A800F008FE012619E02B
:10178000002384F8443021E0002384F8453023E02E
:101790002046FFF7DCFE00F0ADFCFFF75BFCA26B20
:1017A000E36B9A42BBD3022DB9D0019B002BDED054
:1017B000002EE0D0FFF770FC00F008FCFFF74AFCB9
:1017C00094F8442052B2B2F1FF3FD9D094F84520AA
:1017D00052B2B2F1FF3FD7D0FFF75EFC01A902A8D9
:1017E00000F0E0FDD8B92046FFF748FE0028CFD032
:1017F000019904F1100000F06BFD2046FFF7A7FEF1
:1018000000F078FC0028C8D14FF0E0234FF0805260
:10181000C3F8042DBFF34F8FBFF36F8FBDE7204692
:10182000FFF795FE00F066FC00208DE748B108B593
:10183000002181600160C1600B460A46FFF732FF5C
:1018400008BD704710B5024600210120FFF706FFD2
:101850000446FFF7EBFF204610BDF0B585B00192BE
:1018600090B10F460446C1B100F0E4FD064600BB4E
:10187000019B002B5ED04FF0500383F31188BFF320
:101880006F8FBFF34F8FFEE74FF0500383F3118844
:10189000BFF36F8FBFF34F8FFEE7036C002BE3D0D6
:1018A0004FF0500383F31188BFF36F8FBFF34F8F57
:1018B000FEE700263EE039462046FFF736FE013DB2
:1018C000A563236923B9FFF7E7FB012005B0F0BD4D
:1018D00004F1100000F014FD0028F4D04FF0E023D4
:1018E0004FF08052C3F8042DBFF34F8FBFF36F8FBB
:1018F000E9E7FFF7D1FB0020E8E702A800F046FD8A
:10190000012621E0002384F8443029E0002384F8F4
:1019100045302BE02046FFF71AFE00F0EBFB09E014
:101920002046FFF714FE00F0E5FB2046FFF7B5FD6B
:1019300000283FD1FFF78EFBA56B002DBBD1019B8B
:10194000002BD6D0002ED8D0FFF7A6FB00F03EFB30
:10195000FFF780FB94F844305BB2B3F1FF3FD1D086
:1019600094F845305BB2B3F1FF3FCFD0FFF794FB63
:1019700001A902A800F016FD0028D1D12046FFF7EA
:101980008CFD0028C6D0019904F1240000F0A0FCD1
:101990002046FFF7DCFD00F0ADFB0028CAD14FF078
:1019A000E0234FF08052C3F8042DBFF34F8FBFF3F5
:1019B0006F8FBFE7002089E770B584B0019158B1FF
:1019C0000446036C8BB14FF0500383F31188BFF3CF
:1019D0006F8FBFF34F8FFEE74FF0500383F31188F3
:1019E000BFF36F8FBFF34F8FFEE700F023FD054677
:1019F00050B9019B5BB14FF0500383F31188BFF3E3
:101A00006F8FBFF34F8FFEE70026354655E0064641
:101A100053E0013BA36323683BB123694BB9FFF754
:101A20003BFB0126304604B070BD00F01BFEA060F9
:101A3000F3E704F1100000F063FC0028EFD04FF052
:101A4000E0234FF08052C3F8042DBFF34F8FBFF354
:101A50006F8FE4E746B14FF0500383F31188BFF373
:101A60006F8FBFF34F8FFEE7FFF716FBDAE702A891
:101A700000F08CFC01252AE0002384F8443032E099
:101A8000002384F8453034E0FFF7E4FAA06800F062
:101A9000E1FC0646FFF700FB3BE02046FFF757FD61
:101AA00000F028FB09E02046FFF751FD00F022FB83
:101AB0002046FFF7F2FC002842D1FFF7CBFAA36BD8
:101AC000002BA6D1019B002BC4D0002DCFD0FFF757
:101AD000E3FA00F07BFAFFF7BDFA94F844305BB20A
:101AE000B3F1FF3FC8D094F845305BB2B3F1FF3F8C
:101AF000C6D0FFF7D1FA01A902A800F053FC0028D4
:101B0000D1D12046FFF7C9FC0028C6D02368002B9E
:101B1000BAD0019904F1240000F0DAFB2046FFF767
:101B200016FD00F0E7FA0028C7D14FF0E0234FF090
:101B30008052C3F8042DBFF34F8FBFF36F8FBCE704
:101B40000EB900266EE7FFF785FA2046FFF78EFCF8
:101B50000146A06800F02CFDFFF79EFAF1E70000B7
:101B6000084B1B681B6823B9074B4FF0FF321A6004
:101B70007047044B1B68DB68DB685A68024B1A60CD
:101B8000704700BF2C0F0020C40E00202DE9F04745
:101B900007469846089DDDF824900A9C266B02F1C2
:101BA0008042013A06EB820626F00706C1B30846DA
:101BB0004FF0000CBCF10F0F09D810F80C2004EB0B
:101BC0000C0383F8342012B10CF1010CF2E700236E
:101BD00084F84330062D00D90625E56265644FF090
:101BE000000AC4F848A0201DFFF7A0F904F118006E
:101BF000FFF79CF92461C5F10705A5616462C4F88B
:101C00004CA084F850A0424639463046FFF7F8F918
:101C10002060B9F1000F01D0C9F80040BDE8F0879D
:101C2000002384F83430D5E738B5002407E004EB0E
:101C3000840293000E481844FFF76DF90134062C16
:101C4000F5D90C4D2846FFF766F90B4C2046FFF7F7
:101C500062F90A48FFF75FF90948FFF75CF909489C
:101C6000FFF759F9084B1D60084B1C6038BD00BFD9
:101C7000580F0020440F0020300F0020140F0020C8
:101C8000000F0020E80E00202C0F0020280F00205D
:101C900010B50446FFF7DEF9214A136801331360DB
:101CA000204B1B685BB1204B1B686BB91D4B1B683D
:101CB000DA6AE36A9A4207D81A4B1C6004E0194BAF
:101CC0001C601368012B28D0184A13680133136075
:101CD000E06A01238340164A11680B43136000EB4E
:101CE0008000211D134B03EB8000FFF722F9FFF763
:101CF000D3F90D4B1B687BB10A4B1B68DA6AE36AA8
:101D00009A4209D24FF0E0234FF08052C3F8042DDD
:101D1000BFF34F8FBFF36F8F10BDFFF785FFD3E782
:101D2000E40E0020E40F0020D80E0020C80E002092
:101D3000DC0E0020580F002010B5044690F85130FA
:101D400063B1012B11D0022B0ED04FF0500383F35F
:101D50001188BFF36F8FBFF34F8FFEE7006BFFF764
:101D600047FB2046FFF744FB10BDFFF741FBFBE7B5
:101D70000F4B1B68D3B110B5FFF76CF90D4BDB6847
:101D8000DC68201DFFF7F9F80B4A1368013B13606C
:101D9000074A1368013B1360FFF77EF92046FFF7FF
:101DA000CBFF034B1B68002BE6D110BD704700BF73
:101DB000FC0E0020000F0020E40E002008B5FFF705
:101DC000D7FF074B1B68012BF9D94FF0E0234FF0E9
:101DD0008052C3F8042DBFF34F8FBFF36F8FEEE730
:101DE000580F002070B504460D461D4B1E681D4B54
:101DF00018680430FFF7C1F848B91A4B1B68DB6A52
:101E000001229A4018490B6823EA02030B60B4F1DF
:101E1000FF3F0DD03444134B1B685C60A64210D9C1
:101E2000124B18680F4B19680431FFF78DF870BD1D
:101E3000002DEFD00B4B196804310D48FFF779F8EE
:101E4000F5E70C4B1868074B19680431FFF77CF86D
:101E5000094B1B68A342EAD9074B1C60E7E700BFA8
:101E6000E00E0020E40F0020DC0E0020280F0020F0
:101E7000E80E00202C0F0020C40E002030B587B0E3
:101E80000B9C7CB10C9DB5B154250495049D542D3B
:101E90001AD04FF0500383F31188BFF36F8FBFF355
:101EA0004F8FFEE74FF0500383F31188BFF36F8F1E
:101EB000BFF34F8FFEE74FF0500383F31188BFF35A
:101EC0006F8FBFF34F8FFEE7049D0C9D2C630224A0
:101ED00085F8514000240394029505AC01940A9CB6
:101EE0000094FFF753FE0C98FFF7D2FE059807B059
:101EF00030BD2DE9F04385B00746884614461E469E
:101F00009000FFF7F3F908B381465420FFF7EEF98C
:101F10000546A8B1C0F83090002380F851300393F3
:101F200002900D9B01930C9B009333462246414641
:101F30003846FFF72BFE2846FFF7AAFE012007E0F0
:101F40004846FFF755FA4FF0FF3001E04FF0FF3001
:101F500005B0BDE8F083000010B588B000240594FA
:101F6000069407AA06A905A8FEF7CAF9059B0293DD
:101F7000069B019300942346079A0E490E48FFF7EB
:101F80007DFF0E4B186090B14FF0500383F3118822
:101F9000BFF36F8FBFF34F8F094B4FF0FF321A60C3
:101FA000084B01221A60084B1C60FFF7DDF808B0EF
:101FB00010BD00BF882E0008BD1D0008C00E002007
:101FC000C40E0020D80E0020E00E0020024A136844
:101FD00001331360704700BFBC0E0020F8B53A4BC8
:101FE0001B68002B69D1394B1D6801351D60C5B9CF
:101FF000374B1B681B6843B14FF0500383F31188C4
:10200000BFF36F8FBFF34F8FFEE7314A1168314B3B
:10201000186810601960304A136801331360FFF7C5
:102020009FFD2E4B1B68AB423DD900272C4B1B68F4
:10203000DB6A03EB83039A002A4B9B58012B00D9E0
:102040000127294B1B68002B3CD001273AE00127D0
:102050001F4B1B681B6843B31D4B1B68DB68DC68A8
:1020600063689D4226D3261D3046FEF786FFA36A8D
:102070001BB104F11800FEF780FFE36A01229A40C9
:102080001A49086802430A6003EB83039A00314649
:1020900014481044FEF74DFFE26A114B1B68DB6ADF
:1020A0009A42D4D2D4E70027D2E70C4B4FF0FF324C
:1020B0001A60BBE7094A1360B8E70D4A1368013399
:1020C000136000273846F8BDBC0E0020E00E00204B
:1020D0002C0F0020280F0020CC0E0020C40E002062
:1020E000E40F0020580F0020D00E0020DC0E00204E
:1020F000D40E002038B5354B1B6843B94FF0500360
:1021000083F31188BFF36F8FBFF34F8FFEE7FEF7A6
:10211000A1FF2E4B1A68013A1A601B68002B4FD1A1
:102120002B4B1B680BB900244BE00024294B1B6888
:102130001BB3284BDB68DC6804F11800FEF71DFFB9
:10214000251D2846FEF719FFE06A01238340224A35
:1021500011680B43136000EB800029461F4B03EB13
:102160008000FEF7E6FEE26A1D4B1B68DB6A9A42BE
:10217000DCD31C4B01221A60D8E70CB1FFF7F0FC4E
:10218000194B1C6884B9174B1C68D4B14FF0E0237D
:102190004FF08052C3F8042DBFF34F8FBFF36F8F02
:1021A00001240EE0013C07D0FFF718FF0028F9D00A
:1021B0000C4B01221A60F5E70B4B00221A60E2E794
:1021C0000024FEF769FF204638BD00BFBC0E00208A
:1021D000E40E0020140F0020DC0E0020580F002019
:1021E000E40F0020D00E0020D40E002010B5A8B1BE
:1021F0000446104B1B6843B14FF0500383F3118822
:10220000BFF36F8FBFF34F8FFEE7FFF7DFFE0021B5
:102210002046FFF7E7FDFFF76DFF48B94FF0E023D9
:102220004FF08052C3F8042DBFF34F8FBFF36F8F71
:1022300010BD00BFBC0E0020204B1B681BB1204B03
:1022400001221A6070471E4B00221A601D4B1B684A
:10225000B3FA83F3DBB2C3F11F0303EB83018A00FC
:1022600019498A5842B94FF0500383F31188BFF3DC
:102270006F8FBFF34F8FFEE7134803EB83018A0094
:10228000024451684968516003EB830C4FEA8C02A9
:1022900008320244914209D003EB83039A000A4BAF
:1022A00013445B68DA68094B1A60704748686246F5
:1022B0009100054A0A445060EEE700BFBC0E0020C2
:1022C000D00E0020DC0E0020580F0020E40F00206C
:1022D00058B110B50C46094A11681831FEF734FEA2
:1022E00001212046FFF77EFD10BD4FF0500383F320
:1022F0001188BFF36F8FBFF34F8FFEE7E40F00200D
:1023000038B5C368DC6824B304F118052846FEF725
:1023100034FE184B1B682BBB251D2846FEF72DFEEF
:10232000E06A01238340144A11680B43136000EBF9
:1023300080002946114B03EB8000FEF7FAFDE26AAC
:102340000F4B1B68DB6A9A4211D901200D4B1860B4
:1023500038BD4FF0500383F31188BFF36F8FBFF385
:102360004F8FFEE729460848FEF7E3FDE7E7002028
:10237000EEE700BFBC0E0020DC0E0020580F00204E
:10238000E40F0020D00E0020140F0020034B1B6828
:102390000360034B1B684360704700BFCC0E0020F6
:1023A000E00E0020D8B170B50C46054601B3FEF72B
:1023B00051FE1B4B19686B68C81A2268B2F1FF3FC7
:1023C00027D0184E3668D5F800C0B44501D08B42EE
:1023D00024D9824215D80023236001241AE04FF04B
:1023E000500383F31188BFF36F8FBFF34F8FFEE766
:1023F0004FF0500383F31188BFF36F8FBFF34F8FFC
:10240000FEE75B1A134423602846FFF7BFFF002452
:1024100000E00024FEF740FE204670BD0124F9E7ED
:10242000E00E0020CC0E0020014B01221A60704704
:10243000D00E0020054B1B6833B1054B1B680BB158
:10244000002070470220704701207047D80E0020FE
:10245000BC0E0020002848D038B50446C36A254A7F
:102460001268D26A934238D28269002A05DB214A77
:102470001268D26AC2F107028261616903EB8303C9
:102480001D4A02EB8303994205D01A4B1B68DB6A95
:10249000E362012038BD251D2846FEF76EFD38B9E0
:1024A000E36A01229A4015490B6823EA02030B6094
:1024B000104B1B68D86AE062012404FA00F30F4A4B
:1024C00011680B43136000EB800029460A4B03EBB5
:1024D0008000FEF72EFD2046DCE7426C054B1B68B2
:1024E000DB6A9A4203D30020D4E700207047012022
:1024F000D0E700BFE40F0020580F0020DC0E0020C2
:1025000000284BD038B50446264B1B68834208D0C0
:102510004FF0500383F31188BFF36F8FBFF34F8FDA
:10252000FEE7836C43B94FF0500383F31188BFF388
:102530006F8FBFF34F8FFEE7013B8364C16A426C2C
:1025400091422DD00BB1002038BD051D2846FEF765
:1025500014FD68B9E36A03EB8302920012498A58BA
:1025600032B901229A4011490B6823EA02030B6039
:10257000606CE062C0F10703A361012404FA00F378
:102580000A4A11680B43136000EB80002946064B92
:1025900003EB8000FEF7CDFC2046D5E70020704716
:1025A0000020D1E7E40F0020580F0020DC0E0020AF
:1025B00000284FD038B50446836C43B94FF0500320
:1025C00083F31188BFF36F8FBFF34F8FFEE7426C29
:1025D0008A4200D20A46E16A914201D0012B00D022
:1025E00038BD1D4B1B68A3422BD0E262A369002BB0
:1025F00002DBC2F10702A261626901EB8101174BA4
:1026000003EB81039A42EBD1251D2846FEF7B5FC6A
:1026100038B9E36A01229A4011490B6823EA0203A0
:102620000B60E06A012383400D4A11680B4313607D
:1026300000EB80002946094B03EB8000FEF779FC94
:10264000CEE74FF0500383F31188BFF36F8FBFF3D2
:102650004F8FFEE7704700BFE40F0020580F0020A7
:10266000DC0E0020054B1B6823B1044B1A68936CE9
:1026700001339364014B1868704700BFE40F0020DA
:1026800008B530B900224FF480710548FEF7FAF81A
:1026900008BD01224FF480710148FEF7F3F8F7E717
:1026A000000C014008B530B900224FF40071054814
:1026B000FEF7E8F808BD01224FF400710148FEF76B
:1026C000E1F8F7E7000C014010B586B0002204E005
:1026D0000133B3F57A7FFBD30132B2F57A7F01D2B1
:1026E0000023F6E7144B9A6942F008029A619B694D
:1026F00003F008030193019B0023029303930493C7
:1027000005934FF4807302931123039303230593DE
:102710000A4C02A92046FDF7A7FF4FF4007302936D
:1027200002A92046FDF7A0FF0120FFF7A9FF012025
:10273000FFF7B8FF06B010BD00100240000C0140CA
:1027400008B50120FFF7AEFF0120FFF799FF002039
:10275000FFF7A8FF0020FFF793FF08BD08B5002092
:10276000FFF7A0FF0120FFF78BFF0120FFF79AFF83
:1027700008BD38B5054600240FE0802323411D42E3
:1027800014BF01200020FFF78DFF0120FFF778FF25
:102790000020FFF775FF0134E4B2072CEDD90120CA
:1027A000FFF76EFF0020FFF76BFF38BD10B5044642
:1027B000FFF7C6FF7820FFF7DCFF0020FFF7D9FF07
:1027C0002046FFF7D6FFFFF7C9FF10BD70B50646DC
:1027D0000D46FFF7B5FF7820FFF7CBFF4020FFF74E
:1027E000C8FF002404E0305DFFF7C3FF0134E4B20A
:1027F000AC42F8D3FFF7B2FF70BD10B50C4640F005
:10280000B000FFF7D3FF200940F01000FFF7CEFF24
:1028100004F00F00FFF7CAFF10BD0246012002E0DE
:1028200002FB00F019464B1E0029F9D17047000049
:1028300010B500240BE000212046FFF7DEFF8021C9
:10284000044800EBC410FFF7C1FF0134E4B2072CC9
:10285000F1D910BDE80F002000200BE0084A02EB80
:10286000C0120021D1540133DBB213F0800FF5D038
:102870000130C0B2072801D80023F6E7704700BF37
:10288000E80F002008B5FFF71FFFAE20FFF78EFF0F
:10289000D520FFF78BFF8020FFF788FFA820FFF7E8
:1028A00085FF3F20FFF782FFD320FFF77FFF002047
:1028B000FFF77CFF4020FFF779FFA120FFF776FFAD
:1028C000C820FFF773FFDA20FFF770FF1220FFF731
:1028D0006DFF8120FFF76AFFCF20FFF767FFD92048
:1028E000FFF764FFF120FFF761FFDB20FFF75EFFDA
:1028F0003020FFF75BFFA420FFF758FFA620FFF76B
:1029000055FF8D20FFF752FF1420FFF74FFFAF2038
:10291000FFF74CFFFFF7A0FFFFF78AFF08BD00009D
:102920002DE9F04114461D460B4634E046F3CF0630
:102930001C4F07EBC61717F80280D3F1000E03F007
:1029400007060EF0070E58BFCEF100064FF0010E3D
:102950000EFA06FE6FEA0E0E4FFA8EFE08EA0E0819
:1029600007F802800CF1010C0FFA8CFC624600EBB8
:10297000040EF4450DDA1FFA8CFCBCF17F0FF1D880
:10298000002BEFDB3F2BEDDC1E46002BCEDADE1DED
:10299000CCE701331BB24A19934201DA8446E5E7DA
:1029A000BDE8F081E80F00202DE9F04F83B0064626
:1029B0000C4615469A460C9FFFF7B2FF4FF0000BEE
:1029C0004DE0E21D0DE0013A083116E00133DBB2C3
:1029D000AB423ED29C46F0187F28F7D82246002C06
:1029E000EFDBD210D4F1000E04F007010EF0070E59
:1029F00058BFCEF10001002CE5DB4244072A0FD876
:102A0000DFF87CE00EEBC21E1EF8009008FB05CB41
:102A100017F80BB00BFA01FB49EA0B090EF800900E
:102A200002F1010EBEF1070FD0D87246DFF850E078
:102A30000EEBC21212F800E008FB05CC17F80CC030
:102A4000C1F108014CFA01F14EEA010E02F800E072
:102A5000BCE7DDF804B00BF1010B5FFA8BFBBAF1B8
:102A6000010307D4D846BBEBE30F05DC0023CDF808
:102A700004B0ADE70733F5E703B0BDE8F08F00BF62
:102A8000E80F002000B583B0082B04D0062B0CD033
:102A900003B05DF804FB203A0A4B03EB02130093EA
:102AA00010230822FFF780FFF2E7203A02EB4202F0
:102AB000054B03EB4203009308230622FFF774FF44
:102AC000E6E700BFF4310008B82F00082DE9F04711
:102AD0008246894690461E469DF8207000241AE0E2
:102AE00007FB04A5ADB2311B01390A20FFF795FEA3
:102AF000B8FBF0F00A4AA2FB0032D20802EB8202D5
:102B0000A0EB420230323B46D2B2494628B2FFF730
:102B1000B9FF0134E4B2B442E2D3BDE8F08700BFAC
:102B2000CDCCCCCC2DE9F04F85B083468A4690467B
:102B30001F46002635464CE003F0E002C02A2BD0A9
:102B400003F0F002E02A53D003F0F802F02A68D133
:102B50006A1C92B28DF8083018F80220002A00F0A2
:102B60009680AB1C9BB28DF8092018F80320002A30
:102B700000F08D80EB1C9BB28DF80A2018F8033012
:102B8000002B00F084800435ADB28DF80B300023AB
:102B90008DF80C3004230FE06A1C92B28DF80830D7
:102BA00018F80230002B72D00235ADB28DF8093022
:102BB00000238DF80A300223012B35D106EB0B00E0
:102BC0003B469DF80820514600B2FFF75BFF3E44AC
:102BD000B6B218F80530002B59D013F0800FABD1E6
:102BE0000135ADB28DF8083000238DF80930E5E7E6
:102BF0006A1C92B28DF8083018F80220002A46D0DC
:102C0000AB1C9BB28DF8092018F80330002B3ED086
:102C10000335ADB28DF80A3000238DF80B30032355
:102C2000CAE70135ADB2D4E70024A14604EBC403E2
:102C300004EB8303174A9818D35C33B102A9FDF75C
:102C400087FA10B10134A4B2EFE7082F0CD0062F99
:102C5000BFD106EB0B0006233F22514600B2FFF71F
:102C600011FF0636B6B2B4E706EB0B0009EBC90359
:102C700009EB8303074A13440533009310231A46D4
:102C8000514600B2FFF790FE1036B6B2A1E705B08C
:102C9000BDE8F08F902E000803460244934200D115
:102CA000704703F8011BF9E770B500260C4D0D4C79
:102CB000641BA410A64209D100F08EF800260A4D2C
:102CC0000A4C641BA410A64205D170BD55F8043B04
:102CD00098470136EEE755F8043B98470136F2E78E
:102CE000EC370008EC370008EC370008F437000830
:102CF000704770470A44914200F1FF3300D170479A
:102D000010B511F8014B914203F8014FF9D110BDF4
:102D1000024B13B1024800F005B8704700000000F4
:102D2000312D0008002301461A46184600F014B859
:102D300038B5074D074C641BA4101CB9BDE83840DA
:102D400000F050B8013C55F824309847F5E700BF33
:102D5000F4370008F83700082DE9F047DFF86CA0D9
:102D60000646DAF8000098460F469146FFF7C0FF86
:102D7000174B1C680CB9174C1C606568DAF800002A
:102D80001F2D05DDFFF7B5FF4FF0FF30BDE8F087E1
:102D90009EB1012204EB8501C1F88890D4F88831F6
:102DA000AA401343C4F88831022EC1F8088102BF3B
:102DB000D4F88C311343C4F88C316B1C023563603A
:102DC00044F82570FFF795FF0020DFE71000002092
:102DD000EC130020F0130020F8B500BFF8BC08BCCD
:102DE0009E467047F8B500BFF8BC08BC9E467047C9
:102DF000582E0008650100080000000000000000D7
:102E000080000000000000000000000053656E74A8
:102E10003A00000051756575652046756C6C0000C0
:102E2000526563763A000000517565756520456D01
:102E3000707479005175657565204661696C000094
:102E400053656E645461736B0000000052656376D5
:102E50005461736B0000000064656661756C7454A6
:102E600061736B0000000000000000000102030419
:102E70000607080901020000020304050607080905
:102E80000A0B0C0D0E0F101049444C4500000000B9
:102E9000E4BDA00000008060F8074020180F08C8BB
:102EA0000808281800010000FF00100C0340807F74
:102EB0000001061800E5A5BD00001010F01F10F07D
:102EC00000808282E2928A86800040221508166184
:102ED000000040807F0000000000E4B89600002061
:102EE0002020FE2020FF202020FF20202020000086
:102EF00000007F404047444444474040400000E7D2
:102F0000958C0000000000FE929292FE929292FE3A
:102F10000000000008080484621E010001FE020493
:102F200004080800E696B900000808080808F889AF
:102F30008E888888880808080000804020180700CC
:102F4000004080403F00000000E5AEB60000102CBD
:102F50002424A4A465A624242424A4340C004049D9
:102F60004929241452897F040A1110202000E4BF4B
:102F70008A0000008060F8070010985493101054E5
:102F8000983000010000FF00808944462B122A4639
:102F90008081000000000000FF01010131090909E2
:102FA00009897101010101FFFF8080808080809686
:102FB00081808080808080FF000000000000000091
:102FC000002F000000000700070000147F147F148A
:102FD00000242A7F2A120023130864620036495510
:102FE000225000000007000000001C2241000000E9
:102FF00041221C000014083E08140008083E08087E
:10300000000000A0600000080808080800006060D8
:103010000000002010080402003E5149453E000017
:10302000427F4000004261514946002141454B31F9
:10303000001814127F10002745454539003C4A49C5
:103040004930000171090503003649494936000637
:103050004949291E0000363600000000563600009F
:10306000000814224100001414141414000041221A
:103070001408000201510906003E4955592E007CF2
:103080001211127C007F49494936003E41414122DC
:10309000007F4141221C007F49494941007F0909C5
:1030A0000901003E4149497A007F0808087F000075
:1030B000417F4100002040413F01007F0814224130
:1030C000007F40404040007F020C027F007F0408E8
:1030D000107F003E4141413E007F09090906003E44
:1030E0004151215E007F091929460046494949316D
:1030F0000001017F0101003F4040403F001F204090
:10310000201F003F4038403F00631408146300074D
:103110000870080700615149454300007F414100A4
:10312000000204081020000041417F000004020159
:103130000204004040404040000001020400002022
:1031400054545478007F4844443800384444442060
:1031500000384444487F00385454541800087E090D
:1031600001020018A4A4A47C007F080404780000D5
:10317000447D4000004080847D00007F1028440092
:103180000000417F4000007C04180478007C0804A3
:10319000047800384444443800FC242424180018DF
:1031A000242418FC007C08040408004854545420CB
:1031B00000043F444020003C4040207C001C204054
:1031C000201C003C4030403C004428102844001C97
:1031D000A0A0A07C004464544C440000087F41003F
:1031E0000000007F00000000417F08000008040884
:1031F00010080000000000000000000000000000B7
:1032000000000000000000F8000000000000003393
:103210003000000000160E00160E00000000000036
:103220000000000040C07840C0784000043F040423
:103230003F040400007088FC08300000001820FFE4
:10324000211E0000F008F000E018000000211C031F
:103250001E211E0000F00888700000001E2123249B
:1032600019272110000000160E00000000000000C9
:1032700000000000000000E0180402000000000749
:103280001820400000020418E00000000040201850
:1032900007000000404080F0804040000202010F23
:1032A00001020200000000F0000000000101011F07
:1032B00001010100000000000000000000B07000EB
:1032C00000000000000000000000000000010101FB
:1032D000010101010000000000000000003030008A
:1032E0000000000000000000806018040060180664
:1032F0000100000000E010080810E000000F10209E
:1033000020100F00001010F8000000000020203FE7
:103310002020000000700808088870000030282471
:103320002221300000300888884830000018202012
:1033300020110E000000C02010F800000007042437
:10334000243F240000F8088888080800001921207C
:1033500020110E0000E0108888180000000F1120D6
:1033600020110E0000380808C83808000000003F8F
:10337000000000000070880808887000001C2221EE
:1033800021221C0000E010080810E000000031229B
:1033900022110F00000000C0C0000000000000303B
:1033A00030000000000000C0C0000000000080B03D
:1033B000700000000000804020100800000102049E
:1033C00008102000404040404040400004040404F5
:1033D00004040400000810204080000000201008B1
:1033E00004020100007048080808F00000000030E6
:1033F00036010000C030C828E810E0000718272474
:1034000023140B000000C038E0000000203C230221
:103410000227382008F8888888700000203F202084
:1034200020110E00C03008080808380007182020B6
:103430002010080008F808080810E000203F2020AD
:1034400020100F0008F88888E8081000203F20208E
:103450002320180008F88888E8081000203F200082
:1034600003000000C03008080838000007182020BA
:10347000221E020008F808000008F808203F210179
:1034800001213F20000808F8080800000020203F24
:103490002020000000000808F8080800C080808094
:1034A0007F00000008F888C028180800203F20018D
:1034B0002638200008F8080000000000203F2020E7
:1034C0002020300008F8F800F8F80800203F003FFE
:1034D000003F200008F830C00008F808203F200016
:1034E00007183F00E01008080810E0000F10202027
:1034F00020100F0008F808080808F000203F2101FC
:1035000001010000E01008080810E0000F18242452
:1035100038504F0008F8888888887000203F2000C5
:10352000030C30200070880808083800003820217B
:1035300021221C00180808F8080818000000203F85
:103540002000000008F808000008F808001F2020EC
:1035500020201F000878880000C8380800000738BD
:103560000E010000F80800F80008F800033C07000E
:10357000073C0300081868808068180820302C0376
:10358000032C30200838C800C83808000000203F4D
:103590002000000010080808C8380800203826213C
:1035A00020201800000000FE020202000000007F40
:1035B00040404000000C30C000000000000000014E
:1035C0000638C00000020202FE0000000040404039
:1035D0007F000000002010080408102000000000F8
:1035E00000000000000000000000000080808080DB
:1035F00080808080000204080000000000000000BD
:10360000000000000000808080800000001924225B
:1036100022223F2008F8008080000000003F112097
:1036200020110E000000008080800000000E11209C
:1036300020201100000000808088F800000E11207A
:1036400020103F200000808080800000001F222288
:1036500022221300008080F0888888180020203FF4
:10366000202000000000808080808000006B949407
:103670009493600008F8008080800000203F2100C3
:1036800000203F2000809898000000000020203F8C
:1036900020200000000000809898000000C080807A
:1036A000807F000008F8000080808000203F240216
:1036B0002D302000000808F8000000000020203F06
:1036C000202000008080808080808000203F2000BB
:1036D0003F20003F008080008080000000203F21CC
:1036E00000203F200000808080800000001F2020FC
:1036F00020201F00808000808000000080FFA1202B
:1037000020110E000000008080808000000E11203B
:1037100020A0FF80808080008080800020203F21CA
:10372000200001000000808080808000003324247D
:1037300024241900008080E0808000000000001F29
:10374000202000008080000000808000001F2020DA
:1037500020103F20808080000080808000010E309B
:103760000806010080800080008080800F300C03FC
:103770000C300F0000808000808080000020312EFF
:103780000E312000808080000080808080818E70DB
:103790001806010000808080808080000021302C8D
:1037A0002221300000000000807C020200000000A6
:1037B000003F404000000000FF000000000000004B
:1037C000FF0000000002027C800000000040403F3B
:1037D00000000000008040408000008000000000E9
:0437E00000010100E3
:0837E4006CC9FF7F0100000029
:0837EC00112D00083501000851
:0437F40011010008B7
:1037F80000127A000100000010000000AAAAAAAA7C
:04380800E8130020A1
:04000005080004B536
:00000001FF
