:020000040800F2
:100000000050002005030008E1020008E302000898
:10001000E5020008E7020008E9020008000000000D
:10002000000000000000000000000000810E000839
:10003000EB02000800000000210F0008ED0200089C
:100040004D0300084D0300084D0300084D03000850
:100050004D0300084D0300084D0300084D03000840
:100060004D0300084D0300084D0300084D03000830
:100070004D0300084D0300084D0300084D03000820
:100080004D0300084D0300084D0300084D03000810
:100090004D0300084D0300084D0300084D03000800
:1000A0004D0300084D0300084D0300084D030008F0
:1000B0004D0300084D0300084D0300084D030008E0
:1000C0004D0300084D0300084D0300084D030008D0
:1000D0004D0300084D0300084D0300084D030008C0
:1000E0004D0300084D0300084D0300080000000008
:1000F0000000000000000000000000000000000000
:0C01000000000000000000005FF808F1A3
:1001100010B5054C237833B9044B13B10448AFF341
:1001200000800123237010BD140000200000000097
:10013000701B000808B5034B1BB103490348AFF31C
:10014000008008BD0000000018000020701B00089F
:1001500008B5012000F000FEFBE70000034B036040
:10016000034B0B6080231360704700BF30020020F8
:100170003000002010B588B00DF1040C074C0FCCF6
:10018000ACE80F0094E807008CE80700002101A804
:1001900000F0AFFD024B186008B010BD881B0008CE
:1001A0008402002030B589B000240494059406949C
:1001B0000794184B9A6942F010029A619A6902F00A
:1001C00010020192019A9A6942F020029A619A699A
:1001D00002F020020292029A9A6942F004029A61A5
:1001E0009B6903F004030393039B0B4D22464FF4DA
:1001F0000051284600F06EFA4FF400530493112387
:10020000059306940223079304A9284600F054F9A5
:1002100009B030BD001002400010014072B6FEE788
:1002200000B591B02822002106A801F00FFC0023A0
:1002300001930293039304930593022306930123EE
:100240000A9310230B9306A800F060FA68B90F23F5
:1002500001930021029103910491059101A800F0FE
:1002600087FC20B911B05DF804FBFFF7D7FFFFF75B
:10027000D5FF08B500F092F8FFF7D2FFFFF792FF25
:10028000FFF778FF00F030FDFEE7000000B583B017
:10029000114B9A6942F001029A619A6902F00102D7
:1002A0000092009ADA6942F08052DA61DB6903F069
:1002B00080530193019B00220F216FF0010000F099
:1002C000D7F8064A536823F0E06343F000735360A5
:1002D00003B05DF804FB00BF0010024000000140C5
:1002E000FEE7FEE7FEE7FEE7FEE7704708B500F031
:1002F00067F801F09BFB012800D108BD00F032FE39
:10030000FBE77047FFF7FDFF0B480C490C4A002341
:1003100002E0D458C4500433C4188C42F9D3094ABB
:10032000094C002301E013600432A242FBD301F028
:1003300095FBFFF79EFF704700000020140000208F
:10034000E81B00081400002078110020FEE70000E0
:1003500010B504460E4B1A784FF47A73B3FBF2F3E0
:100360000C4A1068B0FBF3F000F092F868B90F2C5B
:1003700001D901200AE0002221464FF0FF3000F0B1
:1003800077F8054B1C60002000E0012010BD00BF85
:1003900004000020000000200800002008B5074AE3
:1003A000136843F010031360032000F04FF80F2090
:1003B000FFF7CEFFFFF76AFF002008BD00200240D4
:1003C000034A1168034B1B780B441360704700BF4E
:1003D0008802002004000020014B1868704700BF0D
:1003E00088020020002808DB0901C9B200F1604042
:1003F00000F5614080F80013704700F00F0009011C
:10040000C9B2014B1954704714ED00E000B500F07B
:100410000700C0F1070CBCF1040F28BF4FF0040C1B
:10042000031D062B0FD9C31E4FF0FF3E0EFA0CF032
:1004300021EA000199400EFA03FE22EA0E0241EA87
:1004400002005DF804FB0023EEE70000074AD368D2
:1004500023F4E0631B041B0C000200F4E060034380
:1004600043F0BF6343F40033D360704700ED00E016
:1004700010B50446054BD868C0F30220FFF7C6FF4D
:1004800001462046FFF7AEFF10BD00BF00ED00E0C3
:100490000138B0F1807F0BD24FF0E0235861054A5C
:1004A000F02182F823100020986107221A6170471A
:1004B0000120704700ED00E070B582B00024A44632
:1004C000A2E07E4DAB4210D007D97D4DAB420CD09F
:1004D00005F58035AB4208D013E0A5F58015AB4299
:1004E00003D005F57025AB4207D18B68002B55D0A2
:1004F000012B4ED04261082403E0A5F58015AB42E4
:10050000F3D0BEF1FF0F4BD806464FEA8C0233689A
:100510000F25954023EA050304FA02F213433360E2
:100520004B6813F0805F6DD0664B9A6942F0010210
:100530009A619B6903F001030193019B4FEA9C02BE
:10054000951C614B53F825600CF00305AD000F239B
:10055000AB4026EA03065D4B984228D003F5806342
:10056000984200F08D8003F58063984200F08A8005
:1005700003F58063984218D0042319E0CC68C0E7E3
:10058000CC680434BDE7CC680834BAE7CC680C34D6
:10059000B7E702610824B4E70024B2E70424B0E717
:1005A000061DACF108029200B1E7032300E000232E
:1005B000AB4033430232444D45F822304B6813F4CC
:1005C000801F61D0424A936843EA0E0393604B68F0
:1005D00013F4001F5ED03E4AD36843EA0E03D36093
:1005E0004B6813F4003F5BD0394A536843EA0E036B
:1005F00053604B6813F4803F58D0354A136843EA80
:100600000E0313600CF1010C0B6833FA0CF253D09B
:10061000012202FA0CF203EA020E32EA0303F1D1DC
:100620004B68122B3FF64DAF122B3FF66AAF01A578
:1006300055F823F0EB0400087D0500088705000845
:1006400099050008030500080305000803050008D4
:10065000030500080305000803050008030500085A
:10066000030500080305000803050008030500084A
:100670000305000803050008810500088D05000832
:10068000012395E7022393E7114A936823EA0E03B7
:1006900093609CE70E4AD36823EA0E03D3609FE77A
:1006A0000B4A536823EA0E035360A2E7084A136813
:1006B00023EA0E031360A5E702B070BD000022100C
:1006C000000031100010024000000140000801400D
:1006D000000401400AB101617047090401617047DB
:1006E00082B0084B1B68084AA2FB03235B0A00FB8D
:1006F00003F3019300BF019B5A1E0192002BF9D115
:1007000002B0704700000020D34D6210002800F0B6
:10071000F18170B582B00446036813F0010F2CD04C
:10072000994B5B6803F00C03042B1DD0964B5B6860
:1007300003F00C03082B12D06368B3F5803F41D05F
:10074000002B55D103F1804303F504331A6822F4DA
:1007500080321A601A6822F480221A6037E08A4BCD
:100760005B6813F4803FE7D0874B1B6813F4003FAE
:1007700003D06368002B00F0BF81236813F0020FE1
:1007800075D0814B5B6813F00C0F5FD07E4B5B68BC
:1007900003F00C03082B54D02369002B00F08A804F
:1007A0007A4B01221A60FFF717FE0546764B1B684D
:1007B00013F0020F75D1FFF70FFE401B0228F5D989
:1007C00003209EE1704A136843F48033136063682A
:1007D00043B3FFF701FE05466B4B1B6813F4003F64
:1007E000CBD1FFF7F9FD401B6428F5D9032088E140
:1007F000B3F5A02F09D0644B1A6822F480321A6036
:100800001A6822F480221A60E1E703F18043A3F51D
:100810003C331A6842F480221A601A6842F480322B
:100820001A60D4E7FFF7D8FD0546574B1B6813F451
:10083000003FA2D0FFF7D0FD401B6428F5D903206C
:100840005FE1514B5B6813F4803FA5D14E4B1B68B1
:1008500013F0020F03D02369012B40F04F814A4A65
:10086000136823F0F803616943EAC1031360236846
:1008700013F0080F33D0A369002B5CD0434B012247
:10088000C3F88024FFF7A8FD05463F4B5B6A13F0D1
:10089000020F21D1FFF7A0FD401B0228F5D903204C
:1008A0002FE1394A136823F0F803616943EAC10371
:1008B0001360DCE7354B00221A60FFF78DFD05461B
:1008C000314B1B6813F0020FD1D0FFF785FD401BA1
:1008D0000228F5D9032014E10120FFF701FF236866
:1008E00013F0040F00F09680274BDB6913F0805F54
:1008F00034D1254BDA6942F08052DA61DB6903F0CA
:1009000080530193019B0125214B1B6813F4807FC9
:1009100026D0E368012B3DD0002B53D103F1804357
:1009200003F504331A6A22F001021A621A6A22F0ED
:1009300004021A6233E0154B0022C3F88024FFF74B
:100940004BFD0546104B5B6A13F0020FC7D0FFF753
:1009500043FD401B0228F5D90320D2E00025D3E750
:100960000B4A136843F480731360FFF735FD0646A6
:10097000074B1B6813F4807FCBD1FFF72DFD801B45
:100980006428F5D90320BCE0001002400000424278
:10099000007000405F4A136A43F001031362E3688A
:1009A00033B3FFF719FD06465A4B1B6A13F0020FCB
:1009B0002FD1FFF711FD801B41F288339842F3D904
:1009C00003209EE0052B09D0524B1A6A22F0010247
:1009D0001A621A6A22F004021A62E0E74D4B1A6AA0
:1009E00042F004021A621A6A42F001021A62D6E761
:1009F000FFF7F2FC0646474B1B6A13F0020F08D0C4
:100A0000FFF7EAFC801B41F288339842F3D90320B8
:100A100077E0E5B9E369002B72D03E4A526802F0F4
:100A20000C02082A56D0022B17D03B4B00221A6624
:100A3000FFF7D2FC0446374B1B6813F0007F47D00A
:100A4000FFF7CAFC001B0228F5D9032059E0314A00
:100A5000D36923F08053D361DCE72F4B00221A6661
:100A6000FFF7BAFC05462B4B1B6813F0007F06D03E
:100A7000FFF7B2FC401B0228F5D9032041E0236AAE
:100A8000B3F5803F1AD023494B6823F47413226ACC
:100A9000606A024313434B601F4B01221A66FFF743
:100AA0009BFC04461B4B1B6813F0007F0ED1FFF725
:100AB00093FC001B0228F5D9032022E0154A536855
:100AC00023F40033A1680B435360DCE7002018E0F7
:100AD000002016E0012B16D00E4B5B6803F480312A
:100AE000226A914211D103F47013626A93420ED1CB
:100AF000002006E001207047012002E0012000E014
:100B0000002002B070BD0120FBE70120F9E70120C1
:100B1000F7E700BF00100240000042420F4B5B6845
:100B200003F00C02082A01D00D487047C3F383423A
:100B30000C49885C13F4803F0BD0084B5B68C3F30F
:100B40004043094AD35C064A02FB00F0B0FBF3F0D5
:100B50007047064B03FB00F0704700BF00100240D7
:100B600000127A00C41B0008C01B000800093D00E9
:100B7000002800F0A08070B50D460446524B1B685B
:100B800003F007038B420BD24F4A136823F007038D
:100B90000B431360136803F007038B4240F08D8012
:100BA000236813F0020F17D013F0040F04D0474A44
:100BB000536843F4E0635360236813F0080F04D0D4
:100BC000424A536843F460535360404A536823F0E9
:100BD000F003A1680B435360236813F0010F31D079
:100BE0006368012B20D0022B25D0384A126812F0FE
:100BF000020F64D035494A6822F0030213434B6068
:100C0000FFF7EAFB0646314B5B6803F00C036268B2
:100C1000B3EB820F16D0FFF7DFFB801B41F2883366
:100C20009842F0D9032045E0284A126812F4003FA8
:100C3000E0D101203EE0254A126812F0007FD9D1B0
:100C4000012037E0204B1B6803F00703AB420AD9B1
:100C50001D4A136823F007032B431360136803F046
:100C60000703AB422DD1236813F0040F06D0174AB7
:100C7000536823F4E063E1680B435360236813F087
:100C8000080F07D0114A536823F46053216943EADF
:100C9000C1035360FFF742FF0C4B5B68C3F30313C0
:100CA0000B4AD35CD8400B4B18600B4B1868FFF70E
:100CB0004FFB002070BD012070470120FAE70120A2
:100CC000F8E70120F6E700BF0020024000100240D4
:100CD000B01B00080000002008000020842801D07C
:100CE000033070470020704708B500F0E3FC002097
:100CF00008BD2DE9F04387B00E464469C4B185694B
:100D0000B5B14768D0F80080D0F81090B0F908006D
:100D1000FFF7E4FF02950194009033464A464146AE
:100D2000384600F059FC0590059807B0BDE8F083FF
:100D3000446805680769B0F90800FFF7CFFF05AB05
:100D4000019300903346BAB22946204600F07FFC5A
:100D50000128E9D00020E8E708B500B9012000F03B
:100D6000F3FD002008BD00F1080343604FF0FF329F
:100D70008260C36003610023036070470023036146
:100D8000704743684B609A688A6051609960086157
:100D9000036801330360704730B40D68B5F1FF3F5D
:100DA00011D000F108031C465B681A68AA42FAD900
:100DB00063684B6099608C6061600861036801330F
:100DC000036030BC70470469F2E7036941688268D8
:100DD0008A60416851605A68824206D000220261EE
:100DE0001A68013A1A601868704782685A60F5E715
:100DF00082B0002301930D4B1B68B3F1FF3F08D075
:100E00004FF0500383F31188BFF36F8FBFF34F8F01
:100E1000FEE74FF0500383F31188BFF36F8FBFF3EA
:100E20004F8F019B002BFCD002B070470C000020BC
:100E300006480068006880F3088862B661B6BFF3B0
:100E40004F8FBFF36F8F00DF00BF000008ED00E0A1
:100E50004FF0807340F8043C21F0010140F8081C79
:100E6000034B40F80C3C40F8202C4038704700BF42
:100E7000F10D00080000000000000000000000006C
:100E8000074B19680868B0E8F00F80F30988BFF3D2
:100E90006F8F4FF0000080F311884EF00D0E7047F9
:100EA000DC0F00204FF0500383F31188BFF36F8FE6
:100EB000BFF34F8F0B4A136801331360012B00D02F
:100EC00070474FF0E023D3F8043D13F0FF0FF7D045
:100ED0004FF0500383F31188BFF36F8FBFF34F8F31
:100EE000FEE700BF0C000020094B1B6843B94FF020
:100EF000500383F31188BFF36F8FBFF34F8FFEE76B
:100F0000013B034A13600BB983F31188704700BF9C
:100F10000C000020000000000000000000000000A5
:100F2000EFF30980BFF36F8F0D4B1A6820E9F00FC4
:100F300010602DE908404FF0500080F3118800F058
:100F400029FD4FF0000080F31188BDE808401968C2
:100F50000868B0E8F00F80F30988BFF36F8F70471F
:100F6000DC0F002008B54FF0500383F31188BFF366
:100F70006F8FBFF34F8F00F0DFFB28B14FF0E023FE
:100F80004FF08052C3F8042D002383F3118808BD6D
:100F90004FF0E022002313619361054B1B68054964
:100FA000A1FB03139B09013B5361072313617047A6
:100FB00000000020D34D621010B582B02A4B1A7881
:100FC000D2B20192FF221A701B78DBB28DF8033087
:100FD0009DF8033003F05003244A1370244B07227A
:100FE0001A6009E0224A1368013B13609DF8033040
:100FF0005B00DBB28DF803309DF8033013F0800FF7
:10100000F0D11B4B1B68032B08D04FF0500383F328
:101010001188BFF36F8FBFF34F8FFEE71B02144A97
:10102000136003F4E0631360019BDBB20E4A13709C
:101030004FF0E023D3F8202D42F47002C3F8202DA6
:10104000D3F8202D42F07042C3F8202DFFF7A0FF07
:101050000024084B1C60FFF7EBFE00F09BFCFFF741
:10106000C7FE204602B010BD00E400E09002002060
:101070008C0200200C000020124A12F0070F1ED034
:10108000D11D21F00701C1F5406313440A460E4803
:101090000260002141601344083B23F007030B4822
:1010A000036059601960991A51601360084B196008
:1010B000084B1960084B4FF000421A6070474FF41C
:1010C0004063E4E7B4020020AC020020A802002044
:1010D000A0020020A402002094020020154B1A4612
:1010E0001B688342FBD3516802EB010C844509D095
:1010F000416800EB010C634509D00360904218D0B1
:10110000106070474068014451601046F0E710B429
:10111000094C2468A3420AD05B68194441601368F3
:101120001B680360904200D0106010BC70470460E0
:10113000F8E77047AC020020A802002038B504464A
:1011400000F0F2FA384B1B68B3B1384B1B681C42F5
:1011500050D1002C50D004F1080214F0070F02D037
:1011600022F007020832002A55D0314B1B68934207
:1011700053D330490C6804E0FFF77EFFE5E72146D2
:101180001C466368934202D22368002BF7D1264B9A
:101190001B68A34243D00D68083523680B60636861
:1011A0009B1A102B10D9A01810F0070F08D04FF081
:1011B000500383F31188BFF36F8FBFF34F8FFEE7A8
:1011C00043606260FFF78AFF626819490B689B1AE7
:1011D0000B60194909688B4201D217490B60134B08
:1011E0001B681343636000232360144A13680133B0
:1011F000136002E0002500E0002500F029FB15F057
:10120000070F0ED04FF0500383F31188BFF36F8F99
:10121000BFF34F8FFEE70025EFE70025EDE7002540
:10122000EBE7284638BD00BFA8020020940200204A
:10123000A4020020AC020020A00200209C0200209A
:10124000002834D038B50446A0F1080550F8043C15
:10125000174A1268134208D14FF0500383F31188E4
:10126000BFF36F8FBFF34F8FFEE750F8081C41B1FB
:101270004FF0500383F31188BFF36F8FBFF34F8F8D
:10128000FEE723EA020340F8043C00F04DFA54F86C
:10129000041C084A13680B4413602846FFF71EFF1E
:1012A000054A13680133136000F0D2FA38BD704765
:1012B00094020020A402002098020020084B1B6822
:1012C0001B6823B9074B4FF0FF321A607047044B7D
:1012D0001B68DB68DB685A68024B1A60704700BF06
:1012E000240F0020BC0E00202DE9F0470746984649
:1012F000089DDDF824900A9C266B02F18042013A99
:1013000006EB820626F00706C1B308464FF0000C34
:10131000BCF10F0F09D810F80C2004EB0C0383F874
:10132000342012B10CF1010CF2E7002384F84330B1
:10133000062D00D90625E56265644FF0000AC4F861
:1013400048A0201DFFF71AFD04F11800FFF716FD55
:101350002461C5F10705A5616462C4F84CA084F856
:1013600050A0424639463046FFF772FD2060B9F181
:10137000000F01D0C9F80040BDE8F087002384F8D1
:101380003430D5E738B5002407E004EB840293003D
:101390000E481844FFF7E7FC0134062CF5D90C4D34
:1013A0002846FFF7E0FC0B4C2046FFF7DCFC0A4820
:1013B000FFF7D9FC0948FFF7D6FC0948FFF7D3FC33
:1013C000084B1D60084B1C6038BD00BF500F00204B
:1013D0003C0F0020280F00200C0F0020F80E0020EA
:1013E000E00E0020240F0020200F002010B504463E
:1013F000FFF758FD214A136801331360204B1B6827
:101400005BB1204B1B686BB91D4B1B68DA6AE36A42
:101410009A4207D81A4B1C6004E0194B1C601368F1
:10142000012B28D0184A136801331360E06A0123A6
:101430008340164A11680B43136000EB8000211DA6
:10144000134B03EB8000FFF79CFCFFF74DFD0D4BAA
:101450001B687BB10A4B1B68DA6AE36A9A4209D2BD
:101460004FF0E0234FF08052C3F8042DBFF34F8FAD
:10147000BFF36F8F10BDFFF785FFD3E7DC0E0020B1
:10148000DC0F0020D00E0020C00E0020D40E002063
:10149000500F002010B5044690F8513063B1012B75
:1014A00011D0022B0ED04FF0500383F31188BFF3FD
:1014B0006F8FBFF34F8FFEE7006BFFF7C1FE204633
:1014C000FFF7BEFE10BDFFF7BBFEFBE70F4B1B682F
:1014D000D3B110B5FFF7E6FC0D4BDB68DC68201DCF
:1014E000FFF773FC0B4A1368013B1360074A13684C
:1014F000013B1360FFF7F8FC2046FFF7CBFF034BDF
:101500001B68002BE6D110BD704700BFF40E002011
:10151000F80E0020DC0E002008B5FFF7D7FF074BC0
:101520001B68012BF9D94FF0E0234FF08052C3F82C
:10153000042DBFF34F8FBFF36F8FEEE7500F0020E6
:1015400070B504460D461D4B1E681D4B18680430CF
:10155000FFF73BFC48B91A4B1B68DB6A01229A4033
:1015600018490B6823EA02030B60B4F1FF3F0DD06A
:101570003444134B1B685C60A64210D9124B1868A8
:101580000F4B19680431FFF707FC70BD002DEFD039
:101590000B4B196804310D48FFF7F3FBF5E70C4BD3
:1015A0001868074B19680431FFF7F6FB094B1B68F5
:1015B000A342EAD9074B1C60E7E700BFD80E002022
:1015C000DC0F0020D40E0020200F0020E00E0020B1
:1015D000240F0020BC0E002030B587B00B9C7CB1DE
:1015E0000C9DB5B154250495049D542D1AD04FF08F
:1015F000500383F31188BFF36F8FBFF34F8FFEE764
:101600004FF0500383F31188BFF36F8FBFF34F8FF9
:10161000FEE74FF0500383F31188BFF36F8FBFF3E2
:101620004F8FFEE7049D0C9D2C63022485F85140EA
:1016300000240394029505AC01940A9C0094FFF7E2
:1016400053FE0C98FFF7D2FE059807B030BD2DE988
:10165000F04385B00746884614461E469000FFF7C3
:101660006DFD08B381465420FFF768FD0546A8B11B
:10167000C0F83090002380F85130039302900D9B06
:1016800001930C9B00933346224641463846FFF7B0
:101690002BFE2846FFF7AAFE012007E04846FFF789
:1016A000CFFD4FF0FF3001E04FF0FF3005B0BDE857
:1016B000F083000010B588B000240594069407AAB2
:1016C00006A905A8FEF74AFD059B0293069B019318
:1016D00000942346079A0E490E48FFF77DFF0E4BF4
:1016E000186090B14FF0500383F31188BFF36F8FF0
:1016F000BFF34F8F094B4FF0FF321A60084B0122A6
:101700001A60084B1C60FFF757FC08B010BD00BF03
:10171000D41B000819150008B80E0020BC0E0020CC
:10172000D00E0020D80E0020024A13680133136047
:10173000704700BFB40E0020F8B53A4B1B68002B71
:1017400069D1394B1D6801351D60C5B9374B1B6820
:101750001B6843B14FF0500383F31188BFF36F8FC1
:10176000BFF34F8FFEE7314A1168314B18681060A4
:101770001960304A136801331360FFF79FFD2E4B49
:101780001B68AB423DD900272C4B1B68DB6A03EB7F
:1017900083039A002A4B9B58012B00D90127294B20
:1017A0001B68002B3CD001273AE001271F4B1B6828
:1017B0001B6843B31D4B1B68DB68DC6863689D4294
:1017C00026D3261D3046FFF700FBA36A1BB104F1A8
:1017D0001800FFF7FAFAE36A01229A401A490868EA
:1017E00002430A6003EB83039A0031461448104415
:1017F000FFF7C7FAE26A114B1B68DB6A9A42D4D240
:10180000D4E70027D2E70C4B4FF0FF321A60BBE75A
:10181000094A1360B8E70D4A1368013313600027C3
:101820003846F8BDB40E0020D80E0020240F00204A
:10183000200F0020C40E0020BC0E0020DC0F002072
:10184000500F0020C80E0020D40E0020CC0E002027
:1018500038B5354B1B6843B94FF0500383F31188FB
:10186000BFF36F8FBFF34F8FFEE7FFF71BFB2E4BCE
:101870001A68013A1A601B68002B4FD12B4B1B686A
:101880000BB900244BE00024294B1B681BB3284BE9
:10189000DB68DC6804F11800FFF797FA251D28467D
:1018A000FFF793FAE06A01238340224A11680B4351
:1018B000136000EB800029461F4B03EB8000FFF70D
:1018C00060FAE26A1D4B1B68DB6A9A42DCD31C4B50
:1018D00001221A60D8E70CB1FFF7F0FC194B1C6825
:1018E00084B9174B1C68D4B14FF0E0234FF08052FD
:1018F000C3F8042DBFF34F8FBFF36F8F01240EE0A9
:10190000013C07D0FFF718FF0028F9D00C4B01224B
:101910001A60F5E70B4B00221A60E2E70024FFF79C
:10192000E3FA204638BD00BFB40E0020DC0E0020D4
:101930000C0F0020D40E0020500F0020DC0F0020E0
:10194000C80E0020CC0E002010B5A8B10446104BE4
:101950001B6843B14FF0500383F31188BFF36F8FBF
:10196000BFF34F8FFEE7FFF7DFFE00212046FFF7B2
:10197000E7FDFFF76DFF48B94FF0E0234FF08052CD
:10198000C3F8042DBFF34F8FBFF36F8F10BD00BF9F
:10199000B40E0020204B1B681BB1204B01221A60A3
:1019A00070471E4B00221A601D4B1B68B3FA83F36D
:1019B000DBB2C3F11F0303EB83018A0019498A5884
:1019C00042B94FF0500383F31188BFF36F8FBFF319
:1019D0004F8FFEE7134803EB83018A0002445168EE
:1019E0004968516003EB830C4FEA8C0208320244D1
:1019F000914209D003EB83039A000A4B13445B68BE
:101A0000DA68094B1A607047486862469100054AD7
:101A10000A445060EEE700BFB40E0020C80E00205C
:101A2000D40E0020500F0020DC0F0020054B1B6857
:101A300033B1054B1B680BB1002070470220704783
:101A400001207047D00E0020B40E0020034602444F
:101A5000934200D1704703F8011BF9E770B50026E7
:101A60000C4D0D4C641BA410A64209D100F080F867
:101A700000260A4D0A4C641BA410A64205D170BD75
:101A800055F8043B98470136EEE755F8043B984774
:101A90000136F2E7DC1B0008DC1B0008DC1B000839
:101AA000E41B000870477047024B13B1024800F076
:101AB00005B8704700000000C91A0008002301465D
:101AC0001A46184600F014B838B5074D074C641B89
:101AD000A4101CB9BDE8384000F050B8013C55F8DE
:101AE00024309847F5E700BFE41B0008E81B000816
:101AF0002DE9F047DFF86CA00646DAF800009846BA
:101B00000F469146FFF7CEFF174B1C680CB9174CD8
:101B10001C606568DAF800001F2D05DDFFF7C3FFC4
:101B20004FF0FF30BDE8F0879EB1012204EB850144
:101B3000C1F88890D4F88831AA401343C4F888319A
:101B4000022EC1F8088102BFD4F88C311343C4F8C7
:101B50008C316B1C0235636044F82570FFF7A3FFDE
:101B60000020DFE710000020E40F0020E80F002035
:101B7000F8B500BFF8BC08BC9E467047F8B500BF7A
:081B8000F8BC08BC9E4670474A
:101B8800A41B00085101000800000000000000002C
:101B9800800000000000000000000000646566612D
:101BA800756C745461736B00000000000000000045
:101BB80001020304060708090102000002030405E4
:101BC800060708090A0B0C0D0E0F101049444C4566
:041BD8000000000009
:081BDC00A91A000835010008F8
:041BE40011010008E3
:101BE80000127A000100000010000000AAAAAAAAA8
:041BF800E00F0020DA
:0400000508000305E7
:00000001FF
